{
  "address": "0x44E01d472ff86Eb1636Ce013E574F70de76e1f32",
  "abi": [
    {
      "inputs": [
        {
          "internalType": "address",
          "name": "initialOwner",
          "type": "address"
        },
        {
          "internalType": "contract IUbeswapV3Farming",
          "name": "_farm",
          "type": "address"
        },
        {
          "internalType": "contract IQuoterV2",
          "name": "_quoter",
          "type": "address"
        }
      ],
      "stateMutability": "nonpayable",
      "type": "constructor"
    },
    {
      "inputs": [],
      "name": "InvalidTick",
      "type": "error"
    },
    {
      "inputs": [
        {
          "internalType": "address",
          "name": "owner",
          "type": "address"
        }
      ],
      "name": "OwnableInvalidOwner",
      "type": "error"
    },
    {
      "inputs": [
        {
          "internalType": "address",
          "name": "account",
          "type": "address"
        }
      ],
      "name": "OwnableUnauthorizedAccount",
      "type": "error"
    },
    {
      "anonymous": false,
      "inputs": [
        {
          "indexed": true,
          "internalType": "address",
          "name": "previousOwner",
          "type": "address"
        },
        {
          "indexed": true,
          "internalType": "address",
          "name": "newOwner",
          "type": "address"
        }
      ],
      "name": "OwnershipTransferred",
      "type": "event"
    },
    {
      "inputs": [
        {
          "internalType": "contract IUniswapV3Pool",
          "name": "pool",
          "type": "address"
        },
        {
          "internalType": "uint256[]",
          "name": "tokenIds",
          "type": "uint256[]"
        }
      ],
      "name": "calculateTokensTvlNative",
      "outputs": [
        {
          "internalType": "uint256[]",
          "name": "",
          "type": "uint256[]"
        }
      ],
      "stateMutability": "nonpayable",
      "type": "function"
    },
    {
      "inputs": [],
      "name": "farm",
      "outputs": [
        {
          "internalType": "contract IUbeswapV3Farming",
          "name": "",
          "type": "address"
        }
      ],
      "stateMutability": "view",
      "type": "function"
    },
    {
      "inputs": [
        {
          "internalType": "uint256",
          "name": "tokenId",
          "type": "uint256"
        },
        {
          "internalType": "int24",
          "name": "currTick",
          "type": "int24"
        },
        {
          "internalType": "uint160",
          "name": "sqrtPriceX96",
          "type": "uint160"
        }
      ],
      "name": "getAmounts",
      "outputs": [
        {
          "internalType": "uint256",
          "name": "amount0",
          "type": "uint256"
        },
        {
          "internalType": "uint256",
          "name": "amount1",
          "type": "uint256"
        }
      ],
      "stateMutability": "view",
      "type": "function"
    },
    {
      "inputs": [
        {
          "components": [
            {
              "internalType": "contract IERC20",
              "name": "rewardToken",
              "type": "address"
            },
            {
              "internalType": "contract IUniswapV3Pool",
              "name": "pool",
              "type": "address"
            },
            {
              "internalType": "uint32",
              "name": "startTime",
              "type": "uint32"
            },
            {
              "internalType": "uint32",
              "name": "lockTime",
              "type": "uint32"
            },
            {
              "internalType": "int24",
              "name": "minimumTickRange",
              "type": "int24"
            },
            {
              "internalType": "int24",
              "name": "maxTickLower",
              "type": "int24"
            },
            {
              "internalType": "int24",
              "name": "minTickLower",
              "type": "int24"
            },
            {
              "internalType": "int24",
              "name": "maxTickUpper",
              "type": "int24"
            },
            {
              "internalType": "int24",
              "name": "minTickUpper",
              "type": "int24"
            }
          ],
          "internalType": "struct IUbeswapV3Farming.IncentiveKey",
          "name": "key",
          "type": "tuple"
        },
        {
          "internalType": "uint256",
          "name": "index",
          "type": "uint256"
        }
      ],
      "name": "getStakedTokenInfo",
      "outputs": [
        {
          "internalType": "uint256",
          "name": "tokenId",
          "type": "uint256"
        },
        {
          "internalType": "uint32",
          "name": "stakeTime",
          "type": "uint32"
        },
        {
          "internalType": "uint32",
          "name": "secondsInsideOfTickRange",
          "type": "uint32"
        },
        {
          "internalType": "uint32",
          "name": "initialSecondsInside",
          "type": "uint32"
        },
        {
          "internalType": "int24",
          "name": "tickLower",
          "type": "int24"
        },
        {
          "internalType": "int24",
          "name": "tickUpper",
          "type": "int24"
        }
      ],
      "stateMutability": "view",
      "type": "function"
    },
    {
      "inputs": [
        {
          "internalType": "bytes[]",
          "name": "data",
          "type": "bytes[]"
        }
      ],
      "name": "multicall",
      "outputs": [
        {
          "internalType": "bytes[]",
          "name": "results",
          "type": "bytes[]"
        }
      ],
      "stateMutability": "payable",
      "type": "function"
    },
    {
      "inputs": [],
      "name": "owner",
      "outputs": [
        {
          "internalType": "address",
          "name": "",
          "type": "address"
        }
      ],
      "stateMutability": "view",
      "type": "function"
    },
    {
      "inputs": [
        {
          "internalType": "address",
          "name": "token",
          "type": "address"
        },
        {
          "internalType": "uint256",
          "name": "amount",
          "type": "uint256"
        }
      ],
      "name": "quoteToken",
      "outputs": [
        {
          "internalType": "uint256",
          "name": "amountOut",
          "type": "uint256"
        }
      ],
      "stateMutability": "nonpayable",
      "type": "function"
    },
    {
      "inputs": [],
      "name": "quoter",
      "outputs": [
        {
          "internalType": "contract IQuoterV2",
          "name": "",
          "type": "address"
        }
      ],
      "stateMutability": "view",
      "type": "function"
    },
    {
      "inputs": [],
      "name": "renounceOwnership",
      "outputs": [],
      "stateMutability": "nonpayable",
      "type": "function"
    },
    {
      "inputs": [
        {
          "internalType": "address",
          "name": "",
          "type": "address"
        }
      ],
      "name": "tokenToNativePath",
      "outputs": [
        {
          "internalType": "bytes",
          "name": "",
          "type": "bytes"
        }
      ],
      "stateMutability": "view",
      "type": "function"
    },
    {
      "inputs": [
        {
          "internalType": "address",
          "name": "newOwner",
          "type": "address"
        }
      ],
      "name": "transferOwnership",
      "outputs": [],
      "stateMutability": "nonpayable",
      "type": "function"
    },
    {
      "inputs": [
        {
          "internalType": "address",
          "name": "token",
          "type": "address"
        },
        {
          "internalType": "bytes",
          "name": "path",
          "type": "bytes"
        }
      ],
      "name": "updateTokenToNativePath",
      "outputs": [],
      "stateMutability": "nonpayable",
      "type": "function"
    }
  ],
  "transactionHash": "0x1bab69fc62f988501739566bd8f797fb0d34eacd709882fef65aefd5af035679",
  "args": [
    "0x2c2bc76B97BCe84A5a9c6e2835AB13306B964cf1",
    "0xA6E9069CB055a425Eb41D185b740B22Ec8f51853",
    "0xA8864a18Fab1ED233Ce1921F329A6A92DBccA56f"
  ],
  "numDeployments": 3,
  "solcInputHash": "6a789b91b6f2f6b6d0769371c308b084",
  "bytecode": "0x60c060405234801561001057600080fd5b5060405161276c38038061276c83398101604081905261002f916100e8565b826001600160a01b03811661005e57604051631e4fbdf760e01b81526000600482015260240160405180910390fd5b61006781610080565b506001600160a01b039182166080521660a05250610135565b600080546001600160a01b038381166001600160a01b0319831681178455604051919092169283917f8be0079c531659141344cd1fd0a4f28419497f9722a3daafe3b4186f6b6457e09190a35050565b6001600160a01b03811681146100e557600080fd5b50565b6000806000606084860312156100fd57600080fd5b8351610108816100d0565b6020850151909350610119816100d0565b604085015190925061012a816100d0565b809150509250925092565b60805160a0516125ef61017d600039600081816102bd015261071c015260008181610114015281816107cf01528181610b0501528181610bbe0152610c7201526125ef6000f3fe6080604052600436106100c75760003560e01c8063ac9650d811610074578063c6bbd5a71161004e578063c6bbd5a7146102ab578063dc77e5d8146102df578063f2fde38b146102ff57600080fd5b8063ac9650d814610200578063b0bff69014610220578063b717b8ff1461027e57600080fd5b806372f39a81116100a557806372f39a81146101725780638da5cb5b146101a057806393ef0b42146101cb57600080fd5b80632b453044146100cc57806336e9332d14610102578063715018a61461015b575b600080fd5b3480156100d857600080fd5b506100ec6100e73660046116be565b61031f565b6040516100f99190611713565b60405180910390f35b34801561010e57600080fd5b506101367f000000000000000000000000000000000000000000000000000000000000000081565b60405173ffffffffffffffffffffffffffffffffffffffff90911681526020016100f9565b34801561016757600080fd5b5061017061067f565b005b34801561017e57600080fd5b5061019261018d366004611756565b610693565b6040519081526020016100f9565b3480156101ac57600080fd5b5060005473ffffffffffffffffffffffffffffffffffffffff16610136565b3480156101d757600080fd5b506101eb6101e636600461179c565b6107c5565b604080519283526020830191909152016100f9565b61021361020e3660046117de565b6109a5565b6040516100f99190611884565b34801561022c57600080fd5b5061024061023b3660046119cc565b610ab8565b6040805196875263ffffffff95861660208801529385169386019390935292166060840152600291820b6080840152900b60a082015260c0016100f9565b34801561028a57600080fd5b5061029e610299366004611a9d565b610dad565b6040516100f99190611aba565b3480156102b757600080fd5b506101367f000000000000000000000000000000000000000000000000000000000000000081565b3480156102eb57600080fd5b506101706102fa366004611acd565b610e47565b34801561030b57600080fd5b5061017061031a366004611a9d565b610e83565b60606000808573ffffffffffffffffffffffffffffffffffffffff16633850c7bd6040518163ffffffff1660e01b815260040160e060405180830381865afa15801561036f573d6000803e3d6000fd5b505050506040513d601f19601f820116820180604052508101906103939190611bc6565b50505050509150915060008673ffffffffffffffffffffffffffffffffffffffff16630dfe16816040518163ffffffff1660e01b8152600401602060405180830381865afa1580156103e9573d6000803e3d6000fd5b505050506040513d601f19601f8201168201806040525081019061040d9190611c65565b905060008773ffffffffffffffffffffffffffffffffffffffff1663d21220a76040518163ffffffff1660e01b8152600401602060405180830381865afa15801561045c573d6000803e3d6000fd5b505050506040513d601f19601f820116820180604052508101906104809190611c65565b905060008273ffffffffffffffffffffffffffffffffffffffff1663313ce5676040518163ffffffff1660e01b8152600401602060405180830381865afa1580156104cf573d6000803e3d6000fd5b505050506040513d601f19601f820116820180604052508101906104f39190611c82565b60ff16905060008273ffffffffffffffffffffffffffffffffffffffff1663313ce5676040518163ffffffff1660e01b8152600401602060405180830381865afa158015610545573d6000803e3d6000fd5b505050506040513d601f19601f820116820180604052508101906105699190611c82565b60ff169050600061057f8561018d85600a611def565b905060006105928561018d85600a611def565b905060008a67ffffffffffffffff8111156105af576105af611907565b6040519080825280602002602001820160405280156105d8578160200160208202803683370190505b50905060008060005b8d8110156106695761060c8f8f838181106105fe576105fe611dfb565b905060200201358c8e6107c5565b909350915061062683876106218b600a611def565b610eec565b925061063882866106218a600a611def565b91506106448284611e2a565b84828151811061065657610656611dfb565b60209081029190910101526001016105e1565b50919a50505050505050505050505b9392505050565b610687610fac565b6106916000610fff565b565b600073ffffffffffffffffffffffffffffffffffffffff831673471ece3750da237f93b8e339c536989b8978a438036106cd5750806107bf565b73ffffffffffffffffffffffffffffffffffffffff8381166000908152600160205260409081902090517fcdca17530000000000000000000000000000000000000000000000000000000081527f00000000000000000000000000000000000000000000000000000000000000009092169163cdca175391610753918690600401611e90565b6000604051808303816000875af1158015610772573d6000803e3d6000fd5b505050506040513d6000823e601f3d9081017fffffffffffffffffffffffffffffffffffffffffffffffffffffffffffffffe01682016040526107b89190810190611fdc565b5091925050505b92915050565b60008060008060007f000000000000000000000000000000000000000000000000000000000000000073ffffffffffffffffffffffffffffffffffffffff1663b44a27226040518163ffffffff1660e01b8152600401602060405180830381865afa158015610838573d6000803e3d6000fd5b505050506040513d601f19601f8201168201806040525081019061085c9190611c65565b73ffffffffffffffffffffffffffffffffffffffff166399fbab88896040518263ffffffff1660e01b815260040161089691815260200190565b61018060405180830381865afa1580156108b4573d6000803e3d6000fd5b505050506040513d601f19601f820116820180604052508101906108d891906120ee565b5050505097509750975050505050508260020b8760020b12156109195761091261090184611074565b61090a84611074565b8360006113db565b9450610939565b8160020b8760020b1215610934576109128661090a84611074565b600094505b8260020b8760020b1215610950576000935061099a565b8160020b8760020b121561097a5761097361096a84611074565b878360006114ff565b935061099a565b61099761098684611074565b61098f84611074565b8360006114ff565b93505b505050935093915050565b60608167ffffffffffffffff8111156109c0576109c0611907565b6040519080825280602002602001820160405280156109f357816020015b60608152602001906001900390816109de5790505b50905060005b82811015610ab15760008030868685818110610a1757610a17611dfb565b9050602002810190610a2991906121d0565b604051610a37929190612235565b600060405180830381855af49150503d8060008114610a72576040519150601f19603f3d011682016040523d82523d6000602084013e610a77565b606091505b509150915081610a8957805160208201fd5b80848481518110610a9c57610a9c611dfb565b602090810291909101015250506001016109f9565b5092915050565b6000806000806000806000610acc896115de565b6040517f6fc9907500000000000000000000000000000000000000000000000000000000815260048101829052602481018a90529091507f000000000000000000000000000000000000000000000000000000000000000073ffffffffffffffffffffffffffffffffffffffff1690636fc9907590604401602060405180830381865afa158015610b61573d6000803e3d6000fd5b505050506040513d601f19601f82011682018060405250810190610b859190612245565b6040517f7dbe07dc00000000000000000000000000000000000000000000000000000000815260048101839052602481018290529097507f000000000000000000000000000000000000000000000000000000000000000073ffffffffffffffffffffffffffffffffffffffff1690637dbe07dc90604401606060405180830381865afa158015610c1a573d6000803e3d6000fd5b505050506040513d601f19601f82011682018060405250810190610c3e919061225e565b6040517fb02c43d0000000000000000000000000000000000000000000000000000000008152600481018b905291985095507f000000000000000000000000000000000000000000000000000000000000000073ffffffffffffffffffffffffffffffffffffffff16915063b02c43d090602401608060405180830381865afa158015610ccf573d6000803e3d6000fd5b505050506040513d601f19601f82011682018060405250810190610cf3919061229d565b60208d01516040517fa38807f2000000000000000000000000000000000000000000000000000000008152600284810b600483015283900b602482015292975090955073ffffffffffffffffffffffffffffffffffffffff16925063a38807f29150604401606060405180830381865afa158015610d75573d6000803e3d6000fd5b505050506040513d601f19601f82011682018060405250810190610d999190612307565b909150905080955050509295509295509295565b60016020526000908152604090208054610dc690611e3d565b80601f0160208091040260200160405190810160405280929190818152602001828054610df290611e3d565b8015610e3f5780601f10610e1457610100808354040283529160200191610e3f565b820191906000526020600020905b815481529060010190602001808311610e2257829003601f168201915b505050505081565b610e4f610fac565b73ffffffffffffffffffffffffffffffffffffffff82166000908152600160205260409020610e7e828261238c565b505050565b610e8b610fac565b73ffffffffffffffffffffffffffffffffffffffff8116610ee0576040517f1e4fbdf7000000000000000000000000000000000000000000000000000000008152600060048201526024015b60405180910390fd5b610ee981610fff565b50565b6000838302817fffffffffffffffffffffffffffffffffffffffffffffffffffffffffffffffff85870982811083820303915050808411610f2c57600080fd5b80600003610f3f57508290049050610678565b6000848688096000868103871696879004966002600389028118808a02820302808a02820302808a02820302808a02820302808a02820302808a02909103029181900381900460010186841190950394909402919094039290920491909117919091029150509392505050565b60005473ffffffffffffffffffffffffffffffffffffffff163314610691576040517f118cdaa7000000000000000000000000000000000000000000000000000000008152336004820152602401610ed7565b6000805473ffffffffffffffffffffffffffffffffffffffff8381167fffffffffffffffffffffffff0000000000000000000000000000000000000000831681178455604051919092169283917f8be0079c531659141344cd1fd0a4f28419497f9722a3daafe3b4186f6b6457e09190a35050565b60008060008360020b1261108b578260020b611093565b8260020b6000035b9050620d89e88111156110d2576040517fce8ef7fc00000000000000000000000000000000000000000000000000000000815260040160405180910390fd5b6000816001166000036110f657700100000000000000000000000000000000611108565b6ffffcb933bd6fad37aa2d162d1a5940015b70ffffffffffffffffffffffffffffffffff169050600282161561113c576ffff97272373d413259a46990580e213a0260801c5b600482161561115b576ffff2e50f5f656932ef12357cf3c7fdcc0260801c5b600882161561117a576fffe5caca7e10e4e61c3624eaa0941cd00260801c5b6010821615611199576fffcb9843d60f6159c9db58835c9266440260801c5b60208216156111b8576fff973b41fa98c081472e6896dfb254c00260801c5b60408216156111d7576fff2ea16466c96a3843ec78b326b528610260801c5b60808216156111f6576ffe5dee046a99a2a811c461f1969c30530260801c5b610100821615611216576ffcbe86c7900a88aedcffc83b479aa3a40260801c5b610200821615611236576ff987a7253ac413176f2b074cf7815e540260801c5b610400821615611256576ff3392b0822b70005940c7a398e4b70f30260801c5b610800821615611276576fe7159475a2c29b7443b29c7fa6e889d90260801c5b611000821615611296576fd097f3bdfd2022b8845ad8f792aa58250260801c5b6120008216156112b6576fa9f746462d870fdf8a65dc1f90e061e50260801c5b6140008216156112d6576f70d869a156d2a1b890bb3df62baf32f70260801c5b6180008216156112f6576f31be135f97d08fd981231505542fcfa60260801c5b62010000821615611317576f09aa508b5b7a84e1c677de54f3e99bc90260801c5b62020000821615611337576e5d6af8dedb81196699c329225ee6040260801c5b62040000821615611356576d2216e584f5fa1ea926041bedfe980260801c5b62080000821615611373576b048a170391f7dc42444e8fa20260801c5b60008460020b13156113b257807fffffffffffffffffffffffffffffffffffffffffffffffffffffffffffffffff816113ae576113ae6124a5565b0490505b6401000000008106156113c65760016113c9565b60005b60ff16602082901c0192505050919050565b60008373ffffffffffffffffffffffffffffffffffffffff168573ffffffffffffffffffffffffffffffffffffffff161115611415579293925b7bffffffffffffffffffffffffffffffff000000000000000000000000606084901b1673ffffffffffffffffffffffffffffffffffffffff868603811690871661145e57600080fd5b836114ae578673ffffffffffffffffffffffffffffffffffffffff1661149b83838973ffffffffffffffffffffffffffffffffffffffff16610eec565b816114a8576114a86124a5565b046114f4565b6114f46114d283838973ffffffffffffffffffffffffffffffffffffffff1661160e565b8873ffffffffffffffffffffffffffffffffffffffff16808204910615150190565b979650505050505050565b60008373ffffffffffffffffffffffffffffffffffffffff168573ffffffffffffffffffffffffffffffffffffffff161115611539579293925b8161158c576115876fffffffffffffffffffffffffffffffff841661155e87876124d4565b73ffffffffffffffffffffffffffffffffffffffff166c01000000000000000000000000610eec565b6115d5565b6115d56fffffffffffffffffffffffffffffffff84166115ac87876124d4565b73ffffffffffffffffffffffffffffffffffffffff166c0100000000000000000000000061160e565b95945050505050565b6000816040516020016115f19190612500565b604051602081830303815290604052805190602001209050919050565b600061161b848484610eec565b9050818061162b5761162b6124a5565b83850915610678576001018061067857600080fd5b73ffffffffffffffffffffffffffffffffffffffff81168114610ee957600080fd5b803561166d81611640565b919050565b60008083601f84011261168457600080fd5b50813567ffffffffffffffff81111561169c57600080fd5b6020830191508360208260051b85010111156116b757600080fd5b9250929050565b6000806000604084860312156116d357600080fd5b83356116de81611640565b9250602084013567ffffffffffffffff8111156116fa57600080fd5b61170686828701611672565b9497909650939450505050565b602080825282518282018190526000918401906040840190835b8181101561174b57835183526020938401939092019160010161172d565b509095945050505050565b6000806040838503121561176957600080fd5b823561177481611640565b946020939093013593505050565b8060020b8114610ee957600080fd5b803561166d81611782565b6000806000606084860312156117b157600080fd5b8335925060208401356117c381611782565b915060408401356117d381611640565b809150509250925092565b600080602083850312156117f157600080fd5b823567ffffffffffffffff81111561180857600080fd5b61181485828601611672565b90969095509350505050565b6000815180845260005b818110156118465760208185018101518683018201520161182a565b5060006020828601015260207fffffffffffffffffffffffffffffffffffffffffffffffffffffffffffffffe0601f83011685010191505092915050565b6000602082016020835280845180835260408501915060408160051b86010192506020860160005b828110156118fb577fffffffffffffffffffffffffffffffffffffffffffffffffffffffffffffffc08786030184526118e6858351611820565b945060209384019391909101906001016118ac565b50929695505050505050565b7f4e487b7100000000000000000000000000000000000000000000000000000000600052604160045260246000fd5b604051610120810167ffffffffffffffff8111828210171561195a5761195a611907565b60405290565b604051601f82017fffffffffffffffffffffffffffffffffffffffffffffffffffffffffffffffe016810167ffffffffffffffff811182821017156119a7576119a7611907565b604052919050565b63ffffffff81168114610ee957600080fd5b803561166d816119af565b6000808284036101408112156119e157600080fd5b6101208112156119f057600080fd5b506119f9611936565b611a0284611662565b8152611a1060208501611662565b6020820152611a21604085016119c1565b6040820152611a32606085016119c1565b6060820152611a4360808501611791565b6080820152611a5460a08501611791565b60a0820152611a6560c08501611791565b60c0820152611a7660e08501611791565b60e0820152611a886101008501611791565b61010082015294610120939093013593505050565b600060208284031215611aaf57600080fd5b813561067881611640565b6020815260006106786020830184611820565b60008060408385031215611ae057600080fd5b8235611aeb81611640565b9150602083013567ffffffffffffffff811115611b0757600080fd5b8301601f81018513611b1857600080fd5b803567ffffffffffffffff811115611b3257611b32611907565b611b6360207fffffffffffffffffffffffffffffffffffffffffffffffffffffffffffffffe0601f84011601611960565b818152866020838501011115611b7857600080fd5b816020840160208301376000602083830101528093505050509250929050565b805161166d81611782565b805161ffff8116811461166d57600080fd5b805160ff8116811461166d57600080fd5b600080600080600080600060e0888a031215611be157600080fd5b8751611bec81611640565b6020890151909750611bfd81611782565b9550611c0b60408901611ba3565b9450611c1960608901611ba3565b9350611c2760808901611ba3565b9250611c3560a08901611bb5565b915060c08801518015158114611c4a57600080fd5b8091505092959891949750929550565b805161166d81611640565b600060208284031215611c7757600080fd5b815161067881611640565b600060208284031215611c9457600080fd5b61067882611bb5565b7f4e487b7100000000000000000000000000000000000000000000000000000000600052601160045260246000fd5b6001815b6001841115611d0757808504811115611ceb57611ceb611c9d565b6001841615611cf957908102905b60019390931c928002611cd0565b935093915050565b600082611d1e575060016107bf565b81611d2b575060006107bf565b8160018114611d415760028114611d4b57611d67565b60019150506107bf565b60ff841115611d5c57611d5c611c9d565b50506001821b6107bf565b5060208310610133831016604e8410600b8410161715611d8a575081810a6107bf565b611db57fffffffffffffffffffffffffffffffffffffffffffffffffffffffffffffffff8484611ccc565b807fffffffffffffffffffffffffffffffffffffffffffffffffffffffffffffffff04821115611de757611de7611c9d565b029392505050565b60006106788383611d0f565b7f4e487b7100000000000000000000000000000000000000000000000000000000600052603260045260246000fd5b808201808211156107bf576107bf611c9d565b600181811c90821680611e5157607f821691505b602082108103611e8a577f4e487b7100000000000000000000000000000000000000000000000000000000600052602260045260246000fd5b50919050565b604081526000808454611ea281611e3d565b8060408601526001821660008114611ec15760018114611efb57611f2f565b7fffffffffffffffffffffffffffffffffffffffffffffffffffffffffffffff0083166060870152606082151560051b8701019350611f2f565b87600052602060002060005b83811015611f2657815488820160600152600190910190602001611f07565b87016060019450505b5050506020929092019290925292915050565b600067ffffffffffffffff821115611f5c57611f5c611907565b5060051b60200190565b600082601f830112611f7757600080fd5b8151611f8a611f8582611f42565b611960565b8082825260208201915060208360051b860101925085831115611fac57600080fd5b602085015b83811015611fd2578051611fc4816119af565b835260209283019201611fb1565b5095945050505050565b60008060008060808587031215611ff257600080fd5b8451602086015190945067ffffffffffffffff81111561201157600080fd5b8501601f8101871361202257600080fd5b8051612030611f8582611f42565b8082825260208201915060208360051b85010192508983111561205257600080fd5b6020840193505b8284101561207d57835161206c81611640565b825260209384019390910190612059565b80965050505050604085015167ffffffffffffffff81111561209e57600080fd5b6120aa87828801611f66565b606096909601519497939650505050565b805162ffffff8116811461166d57600080fd5b80516fffffffffffffffffffffffffffffffff8116811461166d57600080fd5b6000806000806000806000806000806000806101808d8f03121561211157600080fd5b8c516bffffffffffffffffffffffff8116811461212d57600080fd5b9b5061213b60208e01611c5a565b9a5061214960408e01611c5a565b995061215760608e01611c5a565b985061216560808e016120bb565b975061217360a08e01611b98565b965061218160c08e01611b98565b955061218f60e08e016120ce565b6101008e01516101208f0151919650945092506121af6101408e016120ce565b91506121be6101608e016120ce565b90509295989b509295989b509295989b565b60008083357fffffffffffffffffffffffffffffffffffffffffffffffffffffffffffffffe184360301811261220557600080fd5b83018035915067ffffffffffffffff82111561222057600080fd5b6020019150368190038213156116b757600080fd5b8183823760009101908152919050565b60006020828403121561225757600080fd5b5051919050565b60008060006060848603121561227357600080fd5b61227c846120ce565b9250602084015161228c816119af565b60408501519092506117d3816119af565b600080600080608085870312156122b357600080fd5b84516122be81611640565b602086015190945065ffffffffffff811681146122da57600080fd5b60408601519093506122eb81611782565b60608601519092506122fc81611782565b939692955090935050565b60008060006060848603121561231c57600080fd5b83518060060b811461232d57600080fd5b602085015190935061228c81611640565b601f821115610e7e57806000526020600020601f840160051c810160208510156123655750805b601f840160051c820191505b818110156123855760008155600101612371565b5050505050565b815167ffffffffffffffff8111156123a6576123a6611907565b6123ba816123b48454611e3d565b8461233e565b6020601f82116001811461240c57600083156123d65750848201515b7fffffffffffffffffffffffffffffffffffffffffffffffffffffffffffffffff600385901b1c1916600184901b178455612385565b6000848152602081207fffffffffffffffffffffffffffffffffffffffffffffffffffffffffffffffe08516915b8281101561245a578785015182556020948501946001909201910161243a565b508482101561249657868401517fffffffffffffffffffffffffffffffffffffffffffffffffffffffffffffffff600387901b60f8161c191681555b50505050600190811b01905550565b7f4e487b7100000000000000000000000000000000000000000000000000000000600052601260045260246000fd5b73ffffffffffffffffffffffffffffffffffffffff82811682821603908111156107bf576107bf611c9d565b815173ffffffffffffffffffffffffffffffffffffffff1681526020808301516101208301916125479084018273ffffffffffffffffffffffffffffffffffffffff169052565b50604083015161255f604084018263ffffffff169052565b506060830151612577606084018263ffffffff169052565b50608083015161258c608084018260020b9052565b5060a08301516125a160a084018260020b9052565b5060c08301516125b660c084018260020b9052565b5060e08301516125cb60e084018260020b9052565b50610100830151610ab161010084018260020b905256fea164736f6c634300081a000a",
  "devdoc": {
    "errors": {
      "OwnableInvalidOwner(address)": [
        {
          "details": "The owner is not a valid owner account. (eg. `address(0)`)"
        }
      ],
      "OwnableUnauthorizedAccount(address)": [
        {
          "details": "The caller account is not authorized to perform an operation."
        }
      ]
    },
    "kind": "dev",
    "methods": {
      "multicall(bytes[])": {
        "details": "The `msg.value` should not be trusted for any method callable from multicall.",
        "params": {
          "data": "The encoded function data for each of the calls to make to this contract"
        },
        "returns": {
          "results": "The results from each of the calls passed in via data"
        }
      },
      "owner()": {
        "details": "Returns the address of the current owner."
      },
      "renounceOwnership()": {
        "details": "Leaves the contract without owner. It will not be possible to call `onlyOwner` functions. Can only be called by the current owner. NOTE: Renouncing ownership will leave the contract without an owner, thereby disabling any functionality that is only available to the owner."
      },
      "transferOwnership(address)": {
        "details": "Transfers ownership of the contract to a new account (`newOwner`). Can only be called by the current owner."
      }
    },
    "version": 1
  },
  "userdoc": {
    "errors": {
      "InvalidTick()": [
        {
          "notice": "Thrown when the tick passed to #getSqrtRatioAtTick is not between MIN_TICK and MAX_TICK"
        }
      ]
    },
    "kind": "user",
    "methods": {
      "farm()": {
        "notice": "Ubeswap V3 farm"
      },
      "multicall(bytes[])": {
        "notice": "Call multiple functions in the current contract and return the data from all of them if they all succeed"
      },
      "quoter()": {
        "notice": "The quoter for price calculations"
      },
      "tokenToNativePath(address)": {
        "notice": "tokenId => path"
      },
      "updateTokenToNativePath(address,bytes)": {
        "notice": "Sets the path to Native token for given token"
      }
    },
    "version": 1
  },
  "storageLayout": {
    "storage": [
      {
        "astId": 8,
        "contract": "contracts/OffChainCalculationHelper.sol:OffChainCalculationHelper",
        "label": "_owner",
        "offset": 0,
        "slot": "0",
        "type": "t_address"
      },
      {
        "astId": 590,
        "contract": "contracts/OffChainCalculationHelper.sol:OffChainCalculationHelper",
        "label": "tokenToNativePath",
        "offset": 0,
        "slot": "1",
        "type": "t_mapping(t_address,t_bytes_storage)"
      }
    ],
    "types": {
      "t_address": {
        "encoding": "inplace",
        "label": "address",
        "numberOfBytes": "20"
      },
      "t_bytes_storage": {
        "encoding": "bytes",
        "label": "bytes",
        "numberOfBytes": "32"
      },
      "t_mapping(t_address,t_bytes_storage)": {
        "encoding": "mapping",
        "key": "t_address",
        "label": "mapping(address => bytes)",
        "numberOfBytes": "32",
        "value": "t_bytes_storage"
      }
    }
  }
}