{
  "address": "0xA6E9069CB055a425Eb41D185b740B22Ec8f51853",
  "abi": [
    {
      "inputs": [
        {
          "internalType": "contract IUniswapV3Factory",
          "name": "_factory",
          "type": "address"
        },
        {
          "internalType": "contract INonfungiblePositionManager",
          "name": "_nonfungiblePositionManager",
          "type": "address"
        },
        {
          "internalType": "uint256",
          "name": "_maxIncentiveStartLeadTime",
          "type": "uint256"
        },
        {
          "internalType": "uint256",
          "name": "_maxIncentivePeriodDuration",
          "type": "uint256"
        },
        {
          "internalType": "uint256",
          "name": "_maxLockTime",
          "type": "uint256"
        }
      ],
      "stateMutability": "nonpayable",
      "type": "constructor"
    },
    {
      "inputs": [],
      "name": "AccessControlBadConfirmation",
      "type": "error"
    },
    {
      "inputs": [
        {
          "internalType": "address",
          "name": "account",
          "type": "address"
        },
        {
          "internalType": "bytes32",
          "name": "neededRole",
          "type": "bytes32"
        }
      ],
      "name": "AccessControlUnauthorizedAccount",
      "type": "error"
    },
    {
      "inputs": [
        {
          "internalType": "address",
          "name": "target",
          "type": "address"
        }
      ],
      "name": "AddressEmptyCode",
      "type": "error"
    },
    {
      "inputs": [
        {
          "internalType": "address",
          "name": "account",
          "type": "address"
        }
      ],
      "name": "AddressInsufficientBalance",
      "type": "error"
    },
    {
      "inputs": [],
      "name": "FailedInnerCall",
      "type": "error"
    },
    {
      "inputs": [
        {
          "internalType": "address",
          "name": "token",
          "type": "address"
        }
      ],
      "name": "SafeERC20FailedOperation",
      "type": "error"
    },
    {
      "anonymous": false,
      "inputs": [
        {
          "indexed": true,
          "internalType": "uint256",
          "name": "tokenId",
          "type": "uint256"
        },
        {
          "indexed": true,
          "internalType": "address",
          "name": "oldOwner",
          "type": "address"
        },
        {
          "indexed": true,
          "internalType": "address",
          "name": "newOwner",
          "type": "address"
        }
      ],
      "name": "DepositTransferred",
      "type": "event"
    },
    {
      "anonymous": false,
      "inputs": [
        {
          "indexed": true,
          "internalType": "bytes32",
          "name": "incentiveId",
          "type": "bytes32"
        },
        {
          "indexed": false,
          "internalType": "uint128",
          "name": "refund",
          "type": "uint128"
        }
      ],
      "name": "ExcessRewardsRefunded",
      "type": "event"
    },
    {
      "anonymous": false,
      "inputs": [
        {
          "indexed": true,
          "internalType": "bytes32",
          "name": "incentiveId",
          "type": "bytes32"
        },
        {
          "indexed": false,
          "internalType": "address",
          "name": "to",
          "type": "address"
        },
        {
          "indexed": false,
          "internalType": "uint256",
          "name": "reward",
          "type": "uint256"
        }
      ],
      "name": "ExternalRewardCollected",
      "type": "event"
    },
    {
      "anonymous": false,
      "inputs": [
        {
          "indexed": true,
          "internalType": "address",
          "name": "owner",
          "type": "address"
        },
        {
          "indexed": true,
          "internalType": "uint256",
          "name": "tokenId",
          "type": "uint256"
        },
        {
          "indexed": false,
          "internalType": "address",
          "name": "recipient",
          "type": "address"
        },
        {
          "indexed": false,
          "internalType": "uint128",
          "name": "amount0Max",
          "type": "uint128"
        },
        {
          "indexed": false,
          "internalType": "uint128",
          "name": "amount1Max",
          "type": "uint128"
        }
      ],
      "name": "FeeCollected",
      "type": "event"
    },
    {
      "anonymous": false,
      "inputs": [
        {
          "indexed": true,
          "internalType": "bytes32",
          "name": "incentiveId",
          "type": "bytes32"
        },
        {
          "indexed": true,
          "internalType": "contract IERC20",
          "name": "rewardToken",
          "type": "address"
        },
        {
          "indexed": true,
          "internalType": "contract IUniswapV3Pool",
          "name": "pool",
          "type": "address"
        },
        {
          "indexed": false,
          "internalType": "uint32",
          "name": "startTime",
          "type": "uint32"
        },
        {
          "indexed": false,
          "internalType": "uint32",
          "name": "lockTime",
          "type": "uint32"
        },
        {
          "indexed": false,
          "internalType": "int24",
          "name": "minimumTickRange",
          "type": "int24"
        },
        {
          "indexed": false,
          "internalType": "int24",
          "name": "maxTickLower",
          "type": "int24"
        },
        {
          "indexed": false,
          "internalType": "int24",
          "name": "minTickLower",
          "type": "int24"
        },
        {
          "indexed": false,
          "internalType": "int24",
          "name": "maxTickUpper",
          "type": "int24"
        },
        {
          "indexed": false,
          "internalType": "int24",
          "name": "minTickUpper",
          "type": "int24"
        }
      ],
      "name": "IncentiveCreated",
      "type": "event"
    },
    {
      "anonymous": false,
      "inputs": [
        {
          "indexed": true,
          "internalType": "bytes32",
          "name": "incentiveId",
          "type": "bytes32"
        },
        {
          "indexed": false,
          "internalType": "uint32",
          "name": "newPeriodId",
          "type": "uint32"
        },
        {
          "indexed": false,
          "internalType": "uint32",
          "name": "duration",
          "type": "uint32"
        },
        {
          "indexed": false,
          "internalType": "uint128",
          "name": "reward",
          "type": "uint128"
        }
      ],
      "name": "IncentiveExtended",
      "type": "event"
    },
    {
      "anonymous": false,
      "inputs": [
        {
          "indexed": true,
          "internalType": "bytes32",
          "name": "incentiveId",
          "type": "bytes32"
        },
        {
          "indexed": false,
          "internalType": "uint32",
          "name": "timestamp",
          "type": "uint32"
        },
        {
          "indexed": false,
          "internalType": "uint32",
          "name": "newPeriodId",
          "type": "uint32"
        },
        {
          "indexed": false,
          "internalType": "bytes32",
          "name": "merkleRoot",
          "type": "bytes32"
        },
        {
          "indexed": false,
          "internalType": "bytes32",
          "name": "ipfsHash",
          "type": "bytes32"
        },
        {
          "indexed": false,
          "internalType": "uint128",
          "name": "distributedRewardsSinceLastUpdate",
          "type": "uint128"
        },
        {
          "indexed": false,
          "internalType": "uint128",
          "name": "activeTvlNative",
          "type": "uint128"
        },
        {
          "indexed": false,
          "internalType": "uint128",
          "name": "externalTvlNative",
          "type": "uint128"
        }
      ],
      "name": "IncentiveUpdated",
      "type": "event"
    },
    {
      "anonymous": false,
      "inputs": [
        {
          "indexed": true,
          "internalType": "bytes32",
          "name": "incentiveId",
          "type": "bytes32"
        },
        {
          "indexed": false,
          "internalType": "uint32",
          "name": "periodId",
          "type": "uint32"
        },
        {
          "indexed": false,
          "internalType": "uint128",
          "name": "reward",
          "type": "uint128"
        }
      ],
      "name": "PeriodRewardIncreased",
      "type": "event"
    },
    {
      "anonymous": false,
      "inputs": [
        {
          "indexed": true,
          "internalType": "uint256",
          "name": "tokenId",
          "type": "uint256"
        },
        {
          "indexed": true,
          "internalType": "bytes32",
          "name": "incentiveId",
          "type": "bytes32"
        },
        {
          "indexed": true,
          "internalType": "address",
          "name": "to",
          "type": "address"
        },
        {
          "indexed": false,
          "internalType": "uint256",
          "name": "reward",
          "type": "uint256"
        }
      ],
      "name": "RewardCollected",
      "type": "event"
    },
    {
      "anonymous": false,
      "inputs": [
        {
          "indexed": true,
          "internalType": "bytes32",
          "name": "role",
          "type": "bytes32"
        },
        {
          "indexed": true,
          "internalType": "bytes32",
          "name": "previousAdminRole",
          "type": "bytes32"
        },
        {
          "indexed": true,
          "internalType": "bytes32",
          "name": "newAdminRole",
          "type": "bytes32"
        }
      ],
      "name": "RoleAdminChanged",
      "type": "event"
    },
    {
      "anonymous": false,
      "inputs": [
        {
          "indexed": true,
          "internalType": "bytes32",
          "name": "role",
          "type": "bytes32"
        },
        {
          "indexed": true,
          "internalType": "address",
          "name": "account",
          "type": "address"
        },
        {
          "indexed": true,
          "internalType": "address",
          "name": "sender",
          "type": "address"
        }
      ],
      "name": "RoleGranted",
      "type": "event"
    },
    {
      "anonymous": false,
      "inputs": [
        {
          "indexed": true,
          "internalType": "bytes32",
          "name": "role",
          "type": "bytes32"
        },
        {
          "indexed": true,
          "internalType": "address",
          "name": "account",
          "type": "address"
        },
        {
          "indexed": true,
          "internalType": "address",
          "name": "sender",
          "type": "address"
        }
      ],
      "name": "RoleRevoked",
      "type": "event"
    },
    {
      "anonymous": false,
      "inputs": [
        {
          "indexed": true,
          "internalType": "uint256",
          "name": "tokenId",
          "type": "uint256"
        },
        {
          "indexed": true,
          "internalType": "bytes32",
          "name": "incentiveId",
          "type": "bytes32"
        },
        {
          "indexed": false,
          "internalType": "uint128",
          "name": "liquidity",
          "type": "uint128"
        },
        {
          "indexed": false,
          "internalType": "uint32",
          "name": "initialSecondsInside",
          "type": "uint32"
        }
      ],
      "name": "TokenStaked",
      "type": "event"
    },
    {
      "anonymous": false,
      "inputs": [
        {
          "indexed": true,
          "internalType": "uint256",
          "name": "tokenId",
          "type": "uint256"
        },
        {
          "indexed": true,
          "internalType": "bytes32",
          "name": "incentiveId",
          "type": "bytes32"
        }
      ],
      "name": "TokenUnstaked",
      "type": "event"
    },
    {
      "inputs": [],
      "name": "DEFAULT_ADMIN_ROLE",
      "outputs": [
        {
          "internalType": "bytes32",
          "name": "",
          "type": "bytes32"
        }
      ],
      "stateMutability": "view",
      "type": "function"
    },
    {
      "inputs": [],
      "name": "INCENTIVE_MANAGER_ROLE",
      "outputs": [
        {
          "internalType": "bytes32",
          "name": "",
          "type": "bytes32"
        }
      ],
      "stateMutability": "view",
      "type": "function"
    },
    {
      "inputs": [],
      "name": "INCENTIVE_UPDATER_ROLE",
      "outputs": [
        {
          "internalType": "bytes32",
          "name": "",
          "type": "bytes32"
        }
      ],
      "stateMutability": "view",
      "type": "function"
    },
    {
      "inputs": [],
      "name": "REWARD_DISTRIBUTOR_ROLE",
      "outputs": [
        {
          "internalType": "bytes32",
          "name": "",
          "type": "bytes32"
        }
      ],
      "stateMutability": "view",
      "type": "function"
    },
    {
      "inputs": [
        {
          "components": [
            {
              "internalType": "contract IERC20",
              "name": "rewardToken",
              "type": "address"
            },
            {
              "internalType": "contract IUniswapV3Pool",
              "name": "pool",
              "type": "address"
            },
            {
              "internalType": "uint32",
              "name": "startTime",
              "type": "uint32"
            },
            {
              "internalType": "uint32",
              "name": "lockTime",
              "type": "uint32"
            },
            {
              "internalType": "int24",
              "name": "minimumTickRange",
              "type": "int24"
            },
            {
              "internalType": "int24",
              "name": "maxTickLower",
              "type": "int24"
            },
            {
              "internalType": "int24",
              "name": "minTickLower",
              "type": "int24"
            },
            {
              "internalType": "int24",
              "name": "maxTickUpper",
              "type": "int24"
            },
            {
              "internalType": "int24",
              "name": "minTickUpper",
              "type": "int24"
            }
          ],
          "internalType": "struct IUbeswapV3Farming.IncentiveKey",
          "name": "key",
          "type": "tuple"
        }
      ],
      "name": "collectExternalReward",
      "outputs": [],
      "stateMutability": "nonpayable",
      "type": "function"
    },
    {
      "inputs": [
        {
          "components": [
            {
              "internalType": "uint256",
              "name": "tokenId",
              "type": "uint256"
            },
            {
              "internalType": "address",
              "name": "recipient",
              "type": "address"
            },
            {
              "internalType": "uint128",
              "name": "amount0Max",
              "type": "uint128"
            },
            {
              "internalType": "uint128",
              "name": "amount1Max",
              "type": "uint128"
            }
          ],
          "internalType": "struct INonfungiblePositionManager.CollectParams",
          "name": "params",
          "type": "tuple"
        }
      ],
      "name": "collectFee",
      "outputs": [
        {
          "internalType": "uint256",
          "name": "amount0",
          "type": "uint256"
        },
        {
          "internalType": "uint256",
          "name": "amount1",
          "type": "uint256"
        }
      ],
      "stateMutability": "payable",
      "type": "function"
    },
    {
      "inputs": [
        {
          "components": [
            {
              "internalType": "contract IERC20",
              "name": "rewardToken",
              "type": "address"
            },
            {
              "internalType": "contract IUniswapV3Pool",
              "name": "pool",
              "type": "address"
            },
            {
              "internalType": "uint32",
              "name": "startTime",
              "type": "uint32"
            },
            {
              "internalType": "uint32",
              "name": "lockTime",
              "type": "uint32"
            },
            {
              "internalType": "int24",
              "name": "minimumTickRange",
              "type": "int24"
            },
            {
              "internalType": "int24",
              "name": "maxTickLower",
              "type": "int24"
            },
            {
              "internalType": "int24",
              "name": "minTickLower",
              "type": "int24"
            },
            {
              "internalType": "int24",
              "name": "maxTickUpper",
              "type": "int24"
            },
            {
              "internalType": "int24",
              "name": "minTickUpper",
              "type": "int24"
            }
          ],
          "internalType": "struct IUbeswapV3Farming.IncentiveKey",
          "name": "key",
          "type": "tuple"
        },
        {
          "internalType": "uint256",
          "name": "tokenId",
          "type": "uint256"
        },
        {
          "internalType": "uint128",
          "name": "accumulatedRewards",
          "type": "uint128"
        },
        {
          "internalType": "bytes32[]",
          "name": "proof",
          "type": "bytes32[]"
        }
      ],
      "name": "collectReward",
      "outputs": [],
      "stateMutability": "nonpayable",
      "type": "function"
    },
    {
      "inputs": [
        {
          "components": [
            {
              "internalType": "contract IERC20",
              "name": "rewardToken",
              "type": "address"
            },
            {
              "internalType": "contract IUniswapV3Pool",
              "name": "pool",
              "type": "address"
            },
            {
              "internalType": "uint32",
              "name": "startTime",
              "type": "uint32"
            },
            {
              "internalType": "uint32",
              "name": "lockTime",
              "type": "uint32"
            },
            {
              "internalType": "int24",
              "name": "minimumTickRange",
              "type": "int24"
            },
            {
              "internalType": "int24",
              "name": "maxTickLower",
              "type": "int24"
            },
            {
              "internalType": "int24",
              "name": "minTickLower",
              "type": "int24"
            },
            {
              "internalType": "int24",
              "name": "maxTickUpper",
              "type": "int24"
            },
            {
              "internalType": "int24",
              "name": "minTickUpper",
              "type": "int24"
            }
          ],
          "internalType": "struct IUbeswapV3Farming.IncentiveKey",
          "name": "key",
          "type": "tuple"
        },
        {
          "internalType": "uint32",
          "name": "duration",
          "type": "uint32"
        },
        {
          "internalType": "uint128",
          "name": "reward",
          "type": "uint128"
        }
      ],
      "name": "createIncentive",
      "outputs": [],
      "stateMutability": "nonpayable",
      "type": "function"
    },
    {
      "inputs": [
        {
          "internalType": "uint256",
          "name": "",
          "type": "uint256"
        }
      ],
      "name": "deposits",
      "outputs": [
        {
          "internalType": "address",
          "name": "owner",
          "type": "address"
        },
        {
          "internalType": "uint48",
          "name": "numberOfStakes",
          "type": "uint48"
        },
        {
          "internalType": "int24",
          "name": "tickLower",
          "type": "int24"
        },
        {
          "internalType": "int24",
          "name": "tickUpper",
          "type": "int24"
        }
      ],
      "stateMutability": "view",
      "type": "function"
    },
    {
      "inputs": [
        {
          "components": [
            {
              "internalType": "contract IERC20",
              "name": "rewardToken",
              "type": "address"
            },
            {
              "internalType": "contract IUniswapV3Pool",
              "name": "pool",
              "type": "address"
            },
            {
              "internalType": "uint32",
              "name": "startTime",
              "type": "uint32"
            },
            {
              "internalType": "uint32",
              "name": "lockTime",
              "type": "uint32"
            },
            {
              "internalType": "int24",
              "name": "minimumTickRange",
              "type": "int24"
            },
            {
              "internalType": "int24",
              "name": "maxTickLower",
              "type": "int24"
            },
            {
              "internalType": "int24",
              "name": "minTickLower",
              "type": "int24"
            },
            {
              "internalType": "int24",
              "name": "maxTickUpper",
              "type": "int24"
            },
            {
              "internalType": "int24",
              "name": "minTickUpper",
              "type": "int24"
            }
          ],
          "internalType": "struct IUbeswapV3Farming.IncentiveKey",
          "name": "key",
          "type": "tuple"
        },
        {
          "internalType": "uint32",
          "name": "newPeriodId",
          "type": "uint32"
        },
        {
          "internalType": "uint32",
          "name": "duration",
          "type": "uint32"
        },
        {
          "internalType": "uint128",
          "name": "reward",
          "type": "uint128"
        }
      ],
      "name": "extendIncentive",
      "outputs": [],
      "stateMutability": "nonpayable",
      "type": "function"
    },
    {
      "inputs": [],
      "name": "externalRewardDistributor",
      "outputs": [
        {
          "internalType": "address",
          "name": "",
          "type": "address"
        }
      ],
      "stateMutability": "view",
      "type": "function"
    },
    {
      "inputs": [],
      "name": "factory",
      "outputs": [
        {
          "internalType": "contract IUniswapV3Factory",
          "name": "",
          "type": "address"
        }
      ],
      "stateMutability": "view",
      "type": "function"
    },
    {
      "inputs": [
        {
          "internalType": "bytes32",
          "name": "incentiveId",
          "type": "bytes32"
        },
        {
          "internalType": "uint32",
          "name": "timestamp",
          "type": "uint32"
        }
      ],
      "name": "getAccumulatedReward",
      "outputs": [
        {
          "internalType": "uint128",
          "name": "accumulatedReward",
          "type": "uint128"
        },
        {
          "internalType": "uint32",
          "name": "lastPeriodId",
          "type": "uint32"
        }
      ],
      "stateMutability": "view",
      "type": "function"
    },
    {
      "inputs": [
        {
          "internalType": "bytes32",
          "name": "role",
          "type": "bytes32"
        }
      ],
      "name": "getRoleAdmin",
      "outputs": [
        {
          "internalType": "bytes32",
          "name": "",
          "type": "bytes32"
        }
      ],
      "stateMutability": "view",
      "type": "function"
    },
    {
      "inputs": [
        {
          "internalType": "bytes32",
          "name": "incentiveId",
          "type": "bytes32"
        },
        {
          "internalType": "uint256",
          "name": "index",
          "type": "uint256"
        }
      ],
      "name": "getStakedTokenByIndex",
      "outputs": [
        {
          "internalType": "uint256",
          "name": "",
          "type": "uint256"
        }
      ],
      "stateMutability": "view",
      "type": "function"
    },
    {
      "inputs": [
        {
          "internalType": "bytes32",
          "name": "role",
          "type": "bytes32"
        },
        {
          "internalType": "address",
          "name": "account",
          "type": "address"
        }
      ],
      "name": "grantRole",
      "outputs": [],
      "stateMutability": "nonpayable",
      "type": "function"
    },
    {
      "inputs": [
        {
          "internalType": "bytes32",
          "name": "role",
          "type": "bytes32"
        },
        {
          "internalType": "address",
          "name": "account",
          "type": "address"
        }
      ],
      "name": "hasRole",
      "outputs": [
        {
          "internalType": "bool",
          "name": "",
          "type": "bool"
        }
      ],
      "stateMutability": "view",
      "type": "function"
    },
    {
      "inputs": [
        {
          "internalType": "bytes32",
          "name": "",
          "type": "bytes32"
        },
        {
          "internalType": "uint32",
          "name": "",
          "type": "uint32"
        }
      ],
      "name": "incentivePeriods",
      "outputs": [
        {
          "internalType": "uint128",
          "name": "rewardPerSecond",
          "type": "uint128"
        },
        {
          "internalType": "uint32",
          "name": "startTime",
          "type": "uint32"
        },
        {
          "internalType": "uint32",
          "name": "endTime",
          "type": "uint32"
        }
      ],
      "stateMutability": "view",
      "type": "function"
    },
    {
      "inputs": [
        {
          "internalType": "bytes32",
          "name": "",
          "type": "bytes32"
        }
      ],
      "name": "incentives",
      "outputs": [
        {
          "internalType": "uint32",
          "name": "currentPeriodId",
          "type": "uint32"
        },
        {
          "internalType": "uint32",
          "name": "lastUpdateTime",
          "type": "uint32"
        },
        {
          "internalType": "uint32",
          "name": "endTime",
          "type": "uint32"
        },
        {
          "internalType": "uint32",
          "name": "numberOfStakes",
          "type": "uint32"
        },
        {
          "internalType": "uint128",
          "name": "distributedRewards",
          "type": "uint128"
        },
        {
          "internalType": "bytes32",
          "name": "merkleRoot",
          "type": "bytes32"
        },
        {
          "internalType": "bytes32",
          "name": "ipfsHash",
          "type": "bytes32"
        },
        {
          "internalType": "uint128",
          "name": "excessRewards",
          "type": "uint128"
        },
        {
          "internalType": "uint128",
          "name": "externalRewards",
          "type": "uint128"
        }
      ],
      "stateMutability": "view",
      "type": "function"
    },
    {
      "inputs": [
        {
          "components": [
            {
              "internalType": "contract IERC20",
              "name": "rewardToken",
              "type": "address"
            },
            {
              "internalType": "contract IUniswapV3Pool",
              "name": "pool",
              "type": "address"
            },
            {
              "internalType": "uint32",
              "name": "startTime",
              "type": "uint32"
            },
            {
              "internalType": "uint32",
              "name": "lockTime",
              "type": "uint32"
            },
            {
              "internalType": "int24",
              "name": "minimumTickRange",
              "type": "int24"
            },
            {
              "internalType": "int24",
              "name": "maxTickLower",
              "type": "int24"
            },
            {
              "internalType": "int24",
              "name": "minTickLower",
              "type": "int24"
            },
            {
              "internalType": "int24",
              "name": "maxTickUpper",
              "type": "int24"
            },
            {
              "internalType": "int24",
              "name": "minTickUpper",
              "type": "int24"
            }
          ],
          "internalType": "struct IUbeswapV3Farming.IncentiveKey",
          "name": "key",
          "type": "tuple"
        },
        {
          "internalType": "uint32",
          "name": "periodId",
          "type": "uint32"
        },
        {
          "internalType": "uint128",
          "name": "reward",
          "type": "uint128"
        }
      ],
      "name": "increasePeriodReward",
      "outputs": [],
      "stateMutability": "nonpayable",
      "type": "function"
    },
    {
      "inputs": [],
      "name": "maxIncentivePeriodDuration",
      "outputs": [
        {
          "internalType": "uint256",
          "name": "",
          "type": "uint256"
        }
      ],
      "stateMutability": "view",
      "type": "function"
    },
    {
      "inputs": [],
      "name": "maxIncentiveStartLeadTime",
      "outputs": [
        {
          "internalType": "uint256",
          "name": "",
          "type": "uint256"
        }
      ],
      "stateMutability": "view",
      "type": "function"
    },
    {
      "inputs": [],
      "name": "maxLockTime",
      "outputs": [
        {
          "internalType": "uint256",
          "name": "",
          "type": "uint256"
        }
      ],
      "stateMutability": "view",
      "type": "function"
    },
    {
      "inputs": [
        {
          "internalType": "bytes[]",
          "name": "data",
          "type": "bytes[]"
        }
      ],
      "name": "multicall",
      "outputs": [
        {
          "internalType": "bytes[]",
          "name": "results",
          "type": "bytes[]"
        }
      ],
      "stateMutability": "payable",
      "type": "function"
    },
    {
      "inputs": [],
      "name": "nonfungiblePositionManager",
      "outputs": [
        {
          "internalType": "contract INonfungiblePositionManager",
          "name": "",
          "type": "address"
        }
      ],
      "stateMutability": "view",
      "type": "function"
    },
    {
      "inputs": [
        {
          "internalType": "address",
          "name": "",
          "type": "address"
        },
        {
          "internalType": "address",
          "name": "from",
          "type": "address"
        },
        {
          "internalType": "uint256",
          "name": "tokenId",
          "type": "uint256"
        },
        {
          "internalType": "bytes",
          "name": "data",
          "type": "bytes"
        }
      ],
      "name": "onERC721Received",
      "outputs": [
        {
          "internalType": "bytes4",
          "name": "",
          "type": "bytes4"
        }
      ],
      "stateMutability": "nonpayable",
      "type": "function"
    },
    {
      "inputs": [
        {
          "components": [
            {
              "internalType": "contract IERC20",
              "name": "rewardToken",
              "type": "address"
            },
            {
              "internalType": "contract IUniswapV3Pool",
              "name": "pool",
              "type": "address"
            },
            {
              "internalType": "uint32",
              "name": "startTime",
              "type": "uint32"
            },
            {
              "internalType": "uint32",
              "name": "lockTime",
              "type": "uint32"
            },
            {
              "internalType": "int24",
              "name": "minimumTickRange",
              "type": "int24"
            },
            {
              "internalType": "int24",
              "name": "maxTickLower",
              "type": "int24"
            },
            {
              "internalType": "int24",
              "name": "minTickLower",
              "type": "int24"
            },
            {
              "internalType": "int24",
              "name": "maxTickUpper",
              "type": "int24"
            },
            {
              "internalType": "int24",
              "name": "minTickUpper",
              "type": "int24"
            }
          ],
          "internalType": "struct IUbeswapV3Farming.IncentiveKey",
          "name": "key",
          "type": "tuple"
        }
      ],
      "name": "refundExcessRewards",
      "outputs": [],
      "stateMutability": "nonpayable",
      "type": "function"
    },
    {
      "inputs": [
        {
          "internalType": "bytes32",
          "name": "role",
          "type": "bytes32"
        },
        {
          "internalType": "address",
          "name": "callerConfirmation",
          "type": "address"
        }
      ],
      "name": "renounceRole",
      "outputs": [],
      "stateMutability": "nonpayable",
      "type": "function"
    },
    {
      "inputs": [
        {
          "internalType": "bytes32",
          "name": "role",
          "type": "bytes32"
        },
        {
          "internalType": "address",
          "name": "account",
          "type": "address"
        }
      ],
      "name": "revokeRole",
      "outputs": [],
      "stateMutability": "nonpayable",
      "type": "function"
    },
    {
      "inputs": [
        {
          "components": [
            {
              "internalType": "contract IERC20",
              "name": "rewardToken",
              "type": "address"
            },
            {
              "internalType": "contract IUniswapV3Pool",
              "name": "pool",
              "type": "address"
            },
            {
              "internalType": "uint32",
              "name": "startTime",
              "type": "uint32"
            },
            {
              "internalType": "uint32",
              "name": "lockTime",
              "type": "uint32"
            },
            {
              "internalType": "int24",
              "name": "minimumTickRange",
              "type": "int24"
            },
            {
              "internalType": "int24",
              "name": "maxTickLower",
              "type": "int24"
            },
            {
              "internalType": "int24",
              "name": "minTickLower",
              "type": "int24"
            },
            {
              "internalType": "int24",
              "name": "maxTickUpper",
              "type": "int24"
            },
            {
              "internalType": "int24",
              "name": "minTickUpper",
              "type": "int24"
            }
          ],
          "internalType": "struct IUbeswapV3Farming.IncentiveKey",
          "name": "key",
          "type": "tuple"
        },
        {
          "internalType": "uint256",
          "name": "tokenId",
          "type": "uint256"
        }
      ],
      "name": "stakeToken",
      "outputs": [],
      "stateMutability": "nonpayable",
      "type": "function"
    },
    {
      "inputs": [
        {
          "internalType": "bytes32",
          "name": "",
          "type": "bytes32"
        },
        {
          "internalType": "uint256",
          "name": "",
          "type": "uint256"
        }
      ],
      "name": "stakes",
      "outputs": [
        {
          "internalType": "uint128",
          "name": "claimedReward",
          "type": "uint128"
        },
        {
          "internalType": "uint32",
          "name": "stakeTime",
          "type": "uint32"
        },
        {
          "internalType": "uint32",
          "name": "initialSecondsInside",
          "type": "uint32"
        }
      ],
      "stateMutability": "view",
      "type": "function"
    },
    {
      "inputs": [
        {
          "internalType": "bytes4",
          "name": "interfaceId",
          "type": "bytes4"
        }
      ],
      "name": "supportsInterface",
      "outputs": [
        {
          "internalType": "bool",
          "name": "",
          "type": "bool"
        }
      ],
      "stateMutability": "view",
      "type": "function"
    },
    {
      "inputs": [
        {
          "internalType": "uint256",
          "name": "tokenId",
          "type": "uint256"
        },
        {
          "internalType": "address",
          "name": "to",
          "type": "address"
        }
      ],
      "name": "transferDeposit",
      "outputs": [],
      "stateMutability": "nonpayable",
      "type": "function"
    },
    {
      "inputs": [
        {
          "components": [
            {
              "internalType": "contract IERC20",
              "name": "rewardToken",
              "type": "address"
            },
            {
              "internalType": "contract IUniswapV3Pool",
              "name": "pool",
              "type": "address"
            },
            {
              "internalType": "uint32",
              "name": "startTime",
              "type": "uint32"
            },
            {
              "internalType": "uint32",
              "name": "lockTime",
              "type": "uint32"
            },
            {
              "internalType": "int24",
              "name": "minimumTickRange",
              "type": "int24"
            },
            {
              "internalType": "int24",
              "name": "maxTickLower",
              "type": "int24"
            },
            {
              "internalType": "int24",
              "name": "minTickLower",
              "type": "int24"
            },
            {
              "internalType": "int24",
              "name": "maxTickUpper",
              "type": "int24"
            },
            {
              "internalType": "int24",
              "name": "minTickUpper",
              "type": "int24"
            }
          ],
          "internalType": "struct IUbeswapV3Farming.IncentiveKey",
          "name": "key",
          "type": "tuple"
        },
        {
          "internalType": "uint256",
          "name": "tokenId",
          "type": "uint256"
        }
      ],
      "name": "unstakeToken",
      "outputs": [],
      "stateMutability": "nonpayable",
      "type": "function"
    },
    {
      "inputs": [
        {
          "internalType": "address",
          "name": "_new",
          "type": "address"
        }
      ],
      "name": "updateExternalRewardDistributor",
      "outputs": [],
      "stateMutability": "nonpayable",
      "type": "function"
    },
    {
      "inputs": [
        {
          "internalType": "bytes32",
          "name": "incentiveId",
          "type": "bytes32"
        },
        {
          "internalType": "uint32",
          "name": "timestamp",
          "type": "uint32"
        },
        {
          "internalType": "bytes32",
          "name": "merkleRoot",
          "type": "bytes32"
        },
        {
          "internalType": "bytes32",
          "name": "ipfsHash",
          "type": "bytes32"
        },
        {
          "internalType": "uint128",
          "name": "distributedRewardsSinceLastUpdate",
          "type": "uint128"
        },
        {
          "internalType": "uint128",
          "name": "activeTvlNative",
          "type": "uint128"
        },
        {
          "internalType": "uint128",
          "name": "externalTvlNative",
          "type": "uint128"
        }
      ],
      "name": "updateIncentiveDistributionInfo",
      "outputs": [],
      "stateMutability": "nonpayable",
      "type": "function"
    },
    {
      "inputs": [
        {
          "internalType": "uint256",
          "name": "tokenId",
          "type": "uint256"
        },
        {
          "internalType": "address",
          "name": "to",
          "type": "address"
        },
        {
          "internalType": "bytes",
          "name": "data",
          "type": "bytes"
        }
      ],
      "name": "withdrawToken",
      "outputs": [],
      "stateMutability": "nonpayable",
      "type": "function"
    }
  ],
  "transactionHash": "0x9d81f7c230fb20fa56fd523ebe8a2191357f548e0f95a9447c330dfdeaaf3bb6",
  "args": [
    "0x67FEa58D5a5a4162cED847E13c2c81c73bf8aeC4",
    "0x897387c7B996485c3AAa85c94272Cd6C506f8c8F",
    604800,
    7776000,
    7776000
  ],
  "numDeployments": 4,
  "solcInputHash": "0b9f3be7b17619692edb3880d3ad50e1",
  "bytecode": "0x61012060405234801561001157600080fd5b50604051616267380380616267833981016040819052610030916101ae565b6001600160a01b03808616608052841660a05260c083905260e082905261010081905261005e6000336100ea565b506100897f3bd2f1998541a778f2b17a84ff608b734af3ddf06cc43506453ef362dcdf17f1336100ea565b506100b47f892ea130fd6e079bb8cd940bf44abb9be25498d6f215492fb15067ef238b2d58336100ea565b506100df7fb814ff4a26ea3ec5cd1fa579daad86324826254265f3acfec78303a19845b449336100ea565b505050505050610201565b6000828152602081815260408083206001600160a01b038516845290915281205460ff1661018c576000838152602081815260408083206001600160a01b03861684529091529020805460ff191660011790556101443390565b6001600160a01b0316826001600160a01b0316847f2f8788117e7eff1d82e926ec794901d17c78024a50270940304540a733656f0d60405160405180910390a4506001610190565b5060005b92915050565b6001600160a01b03811681146101ab57600080fd5b50565b600080600080600060a086880312156101c657600080fd5b85516101d181610196565b60208701519095506101e281610196565b6040870151606088015160809098015196999198509695945092505050565b60805160a05160c05160e05161010051615fdc61028b600039600081816109a5015261397b015260008181610b070152818161333b01526138eb015260008181610281015261384c0152600081816108f801528181610ea301528181610f730152818161164e015281816121fe01526140df01526000818161095101526140be0152615fdc6000f3fe60806040526004361061026a5760003560e01c80636fc9907511610153578063c4e9ea52116100cb578063d70549f81161007f578063e376ecf211610064578063e376ecf214610ac8578063e802e7f514610af5578063f192822314610b2957600080fd5b8063d70549f814610a88578063d734e6b114610aa857600080fd5b8063d38d81bb116100b0578063d38d81bb146109c7578063d547741f14610a48578063d5ec446514610a6857600080fd5b8063c4e9ea5214610973578063d308e10e1461099357600080fd5b8063a217fddf11610122578063b02c43d011610107578063b02c43d0146107f2578063b44a2722146108e6578063c45a01551461093f57600080fd5b8063a217fddf146107bd578063ac9650d8146107d257600080fd5b80636fc990751461067657806372f5ca63146106965780637dbe07dc146106b657806391d148541461076c57600080fd5b80632f2ff15d116101e65780633c423f0b116101b557806344e153511161019a57806344e153511461051257806357f6a22a14610532578063607777951461056657600080fd5b80633c423f0b146104d257806343b198a5146104f257600080fd5b80632f2ff15d1461043e57806332e4bb0a1461045e57806336568abe1461049257806338a524cf146104b257600080fd5b8063200581df1161023d578063250a472611610222578063250a4726146103d657806326bfee04146103fe578063272fb2211461041e57600080fd5b8063200581df14610384578063248a9ca3146103a657600080fd5b806301b754401461026f57806301ffc9a7146102b6578063078a4fae146102e6578063150b7a0214610333575b600080fd5b34801561027b57600080fd5b506102a37f000000000000000000000000000000000000000000000000000000000000000081565b6040519081526020015b60405180910390f35b3480156102c257600080fd5b506102d66102d136600461504b565b610b5d565b60405190151581526020016102ad565b3480156102f257600080fd5b506103066103013660046150af565b610bf6565b604080516fffffffffffffffffffffffffffffffff909316835263ffffffff9091166020830152016102ad565b34801561033f57600080fd5b5061035361034e366004615101565b610e89565b6040517fffffffff0000000000000000000000000000000000000000000000000000000090911681526020016102ad565b34801561039057600080fd5b506103a461039f366004615345565b611208565b005b3480156103b257600080fd5b506102a36103c1366004615392565b60009081526020819052604090206001015490565b6103e96103e43660046153ab565b61157f565b604080519283526020830191909152016102ad565b34801561040a57600080fd5b506103a46104193660046153c6565b61176e565b34801561042a57600080fd5b506103a461043936600461540f565b61197b565b34801561044a57600080fd5b506103a46104593660046153c6565b611c97565b34801561046a57600080fd5b506102a37fb814ff4a26ea3ec5cd1fa579daad86324826254265f3acfec78303a19845b44981565b34801561049e57600080fd5b506103a46104ad3660046153c6565b611cc2565b3480156104be57600080fd5b506103a46104cd3660046154dc565b611d20565b3480156104de57600080fd5b506103a46104ed3660046154f9565b611eda565b3480156104fe57600080fd5b506103a461050d3660046155cd565b612271565b34801561051e57600080fd5b506103a461052d3660046155ea565b6122e3565b34801561053e57600080fd5b506102a37f3bd2f1998541a778f2b17a84ff608b734af3ddf06cc43506453ef362dcdf17f181565b34801561057257600080fd5b5061060d610581366004615392565b6002602081905260009182526040909120805460018201549282015460039092015463ffffffff8083169464010000000084048216946801000000000000000085048316946c010000000000000000000000008104909316936fffffffffffffffffffffffffffffffff7001000000000000000000000000000000009485900481169482821692041689565b6040805163ffffffff9a8b168152988a1660208a0152968916968801969096529390961660608601526fffffffffffffffffffffffffffffffff918216608086015260a085015260c0840194909452831660e083015291909116610100820152610120016102ad565b34801561068257600080fd5b506102a3610691366004615617565b612763565b3480156106a257600080fd5b506103a46106b13660046154dc565b612785565b3480156106c257600080fd5b506107376106d1366004615617565b60056020908152600092835260408084209091529082529020546fffffffffffffffffffffffffffffffff81169063ffffffff70010000000000000000000000000000000082048116917401000000000000000000000000000000000000000090041683565b604080516fffffffffffffffffffffffffffffffff909416845263ffffffff92831660208501529116908201526060016102ad565b34801561077857600080fd5b506102d66107873660046153c6565b60009182526020828152604080842073ffffffffffffffffffffffffffffffffffffffff93909316845291905290205460ff1690565b3480156107c957600080fd5b506102a3600081565b6107e56107e0366004615639565b6128eb565b6040516102ad919061571e565b3480156107fe57600080fd5b5061089f61080d366004615392565b60046020526000908152604090205473ffffffffffffffffffffffffffffffffffffffff81169065ffffffffffff74010000000000000000000000000000000000000000820416907a0100000000000000000000000000000000000000000000000000008104600290810b917d0100000000000000000000000000000000000000000000000000000000009004900b84565b6040805173ffffffffffffffffffffffffffffffffffffffff909516855265ffffffffffff9093166020850152600291820b928401929092520b60608201526080016102ad565b3480156108f257600080fd5b5061091a7f000000000000000000000000000000000000000000000000000000000000000081565b60405173ffffffffffffffffffffffffffffffffffffffff90911681526020016102ad565b34801561094b57600080fd5b5061091a7f000000000000000000000000000000000000000000000000000000000000000081565b34801561097f57600080fd5b506103a461098e3660046157a1565b6129fe565b34801561099f57600080fd5b506102a37f000000000000000000000000000000000000000000000000000000000000000081565b3480156109d357600080fd5b506107376109e23660046150af565b60036020908152600092835260408084209091529082529020546fffffffffffffffffffffffffffffffff81169063ffffffff70010000000000000000000000000000000082048116917401000000000000000000000000000000000000000090041683565b348015610a5457600080fd5b506103a4610a633660046153c6565b6131fe565b348015610a7457600080fd5b506103a4610a8336600461581c565b613223565b348015610a9457600080fd5b506103a4610aa3366004615345565b6136ac565b348015610ab457600080fd5b506103a4610ac33660046155ea565b613e4f565b348015610ad457600080fd5b5060015461091a9073ffffffffffffffffffffffffffffffffffffffff1681565b348015610b0157600080fd5b506102a37f000000000000000000000000000000000000000000000000000000000000000081565b348015610b3557600080fd5b506102a37f892ea130fd6e079bb8cd940bf44abb9be25498d6f215492fb15067ef238b2d5881565b60007fffffffff0000000000000000000000000000000000000000000000000000000082167f7965db0b000000000000000000000000000000000000000000000000000000001480610bf057507f01ffc9a7000000000000000000000000000000000000000000000000000000007fffffffff000000000000000000000000000000000000000000000000000000008316145b92915050565b6000828152600260209081526040808320546003835281842063ffffffff808316808752918552838620845160608101865290546fffffffffffffffffffffffffffffffff81168252700100000000000000000000000000000000810483169682019690965274010000000000000000000000000000000000000000909504811693850184905290938493640100000000909304821692909187161115610e605780516040820151610ca99084906158aa565b63ffffffff16610cb991906158c6565b9450610cc66001856158f1565b600088815260036020908152604080832063ffffffff808616855290835292819020815160608101835290546fffffffffffffffffffffffffffffffff811680835270010000000000000000000000000000000082048616948301949094527401000000000000000000000000000000000000000090049093169083015291955090610db3576040517f08c379a000000000000000000000000000000000000000000000000000000000815260206004820152601660248201527f6e65787420706572696f64206e6f74206578697374730000000000000000000060448201526064015b60405180910390fd5b806040015163ffffffff168763ffffffff161115610e2d576040517f08c379a000000000000000000000000000000000000000000000000000000000815260206004820152601560248201527f6e65787420706572696f6420656e64656420746f6f00000000000000000000006044820152606401610daa565b80516040830151610e3e90896158aa565b63ffffffff16610e4e91906158c6565b610e58908761590d565b955050610e7f565b8051610e6c83886158aa565b63ffffffff16610e7c91906158c6565b94505b5050509250929050565b60003373ffffffffffffffffffffffffffffffffffffffff7f00000000000000000000000000000000000000000000000000000000000000001614610f2a576040517f08c379a000000000000000000000000000000000000000000000000000000000815260206004820152600f60248201527f6e6f74206120756e697633206e667400000000000000000000000000000000006044820152606401610daa565b6040517f99fbab8800000000000000000000000000000000000000000000000000000000815260048101859052600090819073ffffffffffffffffffffffffffffffffffffffff7f000000000000000000000000000000000000000000000000000000000000000016906399fbab889060240161018060405180830381865afa158015610fbb573d6000803e3d6000fd5b505050506040513d601f19601f82011682018060405250810190610fdf9190615969565b505050505096509650505050505060405180608001604052808873ffffffffffffffffffffffffffffffffffffffff168152602001600065ffffffffffff1681526020018360020b81526020018260020b8152506004600088815260200190815260200160002060008201518160000160006101000a81548173ffffffffffffffffffffffffffffffffffffffff021916908373ffffffffffffffffffffffffffffffffffffffff16021790555060208201518160000160146101000a81548165ffffffffffff021916908365ffffffffffff160217905550604082015181600001601a6101000a81548162ffffff021916908360020b62ffffff160217905550606082015181600001601d6101000a81548162ffffff021916908360020b62ffffff1602179055509050508673ffffffffffffffffffffffffffffffffffffffff16600073ffffffffffffffffffffffffffffffffffffffff16877fcdfc765b85e1048bee3c6a0f9d1c91fc7c4631f5fe5745a55fc6843db5c3260f60405160405180910390a483156111db576101208490036111915761118c611186858701876154dc565b87613eea565b6111db565b600061119f85870187615a4b565b905060005b81518110156111d8576111d08282815181106111c2576111c2615ae3565b602002602001015189613eea565b6001016111a4565b50505b507f150b7a0200000000000000000000000000000000000000000000000000000000979650505050505050565b7fb814ff4a26ea3ec5cd1fa579daad86324826254265f3acfec78303a19845b4496112328161470d565b6000826fffffffffffffffffffffffffffffffff16116112ae576040517f08c379a000000000000000000000000000000000000000000000000000000000815260206004820152601760248201527f726577617264206d75737420626520706f7369746976650000000000000000006044820152606401610daa565b60006112b98561471a565b600081815260036020908152604080832063ffffffff808a16855290835292819020815160608101835290546fffffffffffffffffffffffffffffffff8116808352700100000000000000000000000000000000820486169483019490945274010000000000000000000000000000000000000000900490931690830152919250906113a1576040517f08c379a000000000000000000000000000000000000000000000000000000000815260206004820181905260248201527f6e6f6e2d6578697374656e7420696e63656e74697665206f7220706572696f646044820152606401610daa565b806020015163ffffffff16421115611415576040517f08c379a000000000000000000000000000000000000000000000000000000000815260206004820152601160248201527f706572696f6420697320737461727465640000000000000000000000000000006044820152606401610daa565b8060200151816040015161142991906158aa565b6114399063ffffffff1685615b41565b8151829061144890839061590d565b6fffffffffffffffffffffffffffffffff908116909152600084815260036020908152604080832063ffffffff808c16855290835292819020865181549388015192880151851674010000000000000000000000000000000000000000027fffffffffffffffff00000000ffffffffffffffffffffffffffffffffffffffff93909516700100000000000000000000000000000000027fffffffffffffffffffffffff0000000000000000000000000000000000000000909416908616179290921716919091179055875161152492509033903090881661474a565b6040805163ffffffff871681526fffffffffffffffffffffffffffffffff8616602082015283917f1c54db607258dd5be63825fa64f13469c14df5e84d5a2cd4b7a57bf005e2b8af91015b60405180910390a2505050505050565b8035600090815260046020526040812054819073ffffffffffffffffffffffffffffffffffffffff16338114611611576040517f08c379a000000000000000000000000000000000000000000000000000000000815260206004820152601660248201527f6f6e6c79206f776e65722063616e20636f6c6c656374000000000000000000006044820152606401610daa565b6040517ffc6f786500000000000000000000000000000000000000000000000000000000815273ffffffffffffffffffffffffffffffffffffffff7f0000000000000000000000000000000000000000000000000000000000000000169063fc6f7865903490611685908890600401615b81565b604080518083038185885af11580156116a2573d6000803e3d6000fd5b50505050506040513d601f19601f820116820180604052508101906116c79190615c04565b90935091508335337f50edbacae0578a2d5821781b36c7ec80bc02581cf76cb1f7254abde5018d6c7c61170060408801602089016155cd565b6117106060890160408a01615c28565b61172060808a0160608b01615c28565b6040805173ffffffffffffffffffffffffffffffffffffffff90941684526fffffffffffffffffffffffffffffffff928316602085015291169082015260600160405180910390a350915091565b3073ffffffffffffffffffffffffffffffffffffffff8216036117ed576040517f08c379a000000000000000000000000000000000000000000000000000000000815260206004820152601760248201527f63616e6e6f74207472616e7366657220746f206661726d0000000000000000006044820152606401610daa565b73ffffffffffffffffffffffffffffffffffffffff811661186a576040517f08c379a000000000000000000000000000000000000000000000000000000000815260206004820152601260248201527f696e76616c696420746f206164647265737300000000000000000000000000006044820152606401610daa565b60008281526004602052604090205473ffffffffffffffffffffffffffffffffffffffff163381146118f8576040517f08c379a000000000000000000000000000000000000000000000000000000000815260206004820152601760248201527f6f6e6c79206f776e65722063616e207472616e736665720000000000000000006044820152606401610daa565b60008381526004602052604080822080547fffffffffffffffffffffffff00000000000000000000000000000000000000001673ffffffffffffffffffffffffffffffffffffffff868116918217909255915191929084169186917fcdfc765b85e1048bee3c6a0f9d1c91fc7c4631f5fe5745a55fc6843db5c3260f91a4505050565b60008381526004602052604090205473ffffffffffffffffffffffffffffffffffffffff163314611a08576040517f08c379a000000000000000000000000000000000000000000000000000000000815260206004820152601660248201527f6f6e6c79206f776e65722063616e20636f6c6c656374000000000000000000006044820152606401610daa565b6000611a138561471a565b905060008484604051602001611a459291909182526fffffffffffffffffffffffffffffffff16602082015260400190565b604080517fffffffffffffffffffffffffffffffffffffffffffffffffffffffffffffffe08184030181528282528051602091820120908301819052925060009101604051602081830303815290604052805190602001209050611ac0846002600086815260200190815260200160002060010154836147d3565b611b26576040517f08c379a000000000000000000000000000000000000000000000000000000000815260206004820152600d60248201527f496e76616c69642070726f6f66000000000000000000000000000000000000006044820152606401610daa565b6000838152600560209081526040808320898452909152812054611b5c906fffffffffffffffffffffffffffffffff1687615c45565b6fffffffffffffffffffffffffffffffff16905060008111611bda576040517f08c379a000000000000000000000000000000000000000000000000000000000815260206004820152600a60248201527f6e6f2072657761726473000000000000000000000000000000000000000000006044820152606401610daa565b60008481526005602090815260408083208a8452909152902080547fffffffffffffffffffffffffffffffff00000000000000000000000000000000166fffffffffffffffffffffffffffffffff88161790558751611c3b9030338461474a565b3373ffffffffffffffffffffffffffffffffffffffff1684887f57ae984fe3f294f7f0e5fbef4922a2573552f4bfff61ebc9a6c37f5cedb49ff684604051611c8591815260200190565b60405180910390a45050505050505050565b600082815260208190526040902060010154611cb28161470d565b611cbc83836147e9565b50505050565b73ffffffffffffffffffffffffffffffffffffffff81163314611d11576040517f6697b23200000000000000000000000000000000000000000000000000000000815260040160405180910390fd5b611d1b82826148e5565b505050565b60015473ffffffffffffffffffffffffffffffffffffffff163314611da1576040517f08c379a000000000000000000000000000000000000000000000000000000000815260206004820152601d60248201527f6e6f742065787465726e616c5265776172644469737472696275746f720000006044820152606401610daa565b6000611dac8261471a565b60008181526002602052604090206003015490915070010000000000000000000000000000000090046fffffffffffffffffffffffffffffffff1680611e4e576040517f08c379a000000000000000000000000000000000000000000000000000000000815260206004820152600a60248201527f6e6f2072657761726473000000000000000000000000000000000000000000006044820152606401610daa565b600082815260026020526040902060030180546fffffffffffffffffffffffffffffffff9081169091558351611e899130903390851661474a565b604080513381526fffffffffffffffffffffffffffffffff8316602082015283917fdf5bb5ca821c02d2066972ec4b3cbfd743de495945f9a0a393328ff8fc0e23a2910160405180910390a2505050565b3073ffffffffffffffffffffffffffffffffffffffff831603611f59576040517f08c379a000000000000000000000000000000000000000000000000000000000815260206004820152601760248201527f63616e6e6f7420776974686472617720746f206661726d0000000000000000006044820152606401610daa565b73ffffffffffffffffffffffffffffffffffffffff8216611fd6576040517f08c379a000000000000000000000000000000000000000000000000000000000815260206004820152601260248201527f696e76616c696420746f206164647265737300000000000000000000000000006044820152606401610daa565b6000838152600460209081526040918290208251608081018452905473ffffffffffffffffffffffffffffffffffffffff8116825265ffffffffffff740100000000000000000000000000000000000000008204169282018390527a0100000000000000000000000000000000000000000000000000008104600290810b948301949094527d010000000000000000000000000000000000000000000000000000000000900490920b6060830152156120eb576040517f08c379a000000000000000000000000000000000000000000000000000000000815260206004820152600f60248201527f746f6b656e206973207374616b656400000000000000000000000000000000006044820152606401610daa565b805173ffffffffffffffffffffffffffffffffffffffff16331461216b576040517f08c379a000000000000000000000000000000000000000000000000000000000815260206004820152601760248201527f6f6e6c79206f776e65722063616e2077697468647261770000000000000000006044820152606401610daa565b6000848152600460205260408082208290558251905173ffffffffffffffffffffffffffffffffffffffff9091169086907fcdfc765b85e1048bee3c6a0f9d1c91fc7c4631f5fe5745a55fc6843db5c3260f908490a46040517fb88d4fde00000000000000000000000000000000000000000000000000000000815273ffffffffffffffffffffffffffffffffffffffff7f0000000000000000000000000000000000000000000000000000000000000000169063b88d4fde90612239903090879089908890600401615c6d565b600060405180830381600087803b15801561225357600080fd5b505af1158015612267573d6000803e3d6000fd5b5050505050505050565b7f3bd2f1998541a778f2b17a84ff608b734af3ddf06cc43506453ef362dcdf17f161229b8161470d565b50600180547fffffffffffffffffffffffff00000000000000000000000000000000000000001673ffffffffffffffffffffffffffffffffffffffff92909216919091179055565b60008181526004602052604090205473ffffffffffffffffffffffffffffffffffffffff163314612370576040517f08c379a000000000000000000000000000000000000000000000000000000000815260206004820152601660248201527f6f6e6c79206f776e65722063616e20756e7374616b65000000000000000000006044820152606401610daa565b600061237b8361471a565b6000818152600560209081526040808320868452909152902054909150700100000000000000000000000000000000900463ffffffff16612418576040517f08c379a000000000000000000000000000000000000000000000000000000000815260206004820152601060248201527f746f6b656e206e6f74207374616b6564000000000000000000000000000000006044820152606401610daa565b600081815260026020818152604092839020835161012081018552815463ffffffff808216835264010000000082048116948301949094526801000000000000000081048416958201959095526c01000000000000000000000000850483166060808301919091526fffffffffffffffffffffffffffffffff7001000000000000000000000000000000009687900481166080840152600184015460a08401529483015460c083015260039092015480851660e08301529490940490921661010084015290850151161561259657600082815260056020908152604080832086845290915290205461252490700100000000000000000000000000000000900463ffffffff1642615cbe565b846060015163ffffffff1610612596576040517f08c379a000000000000000000000000000000000000000000000000000000000815260206004820152600c60248201527f746f6b656e206c6f636b656400000000000000000000000000000000000000006044820152606401610daa565b606081015160008381526006602052604090206125be91859063ffffffff908116906149a016565b506040805160608101825260008481526005602090815283822087835280825284832080546fffffffffffffffffffffffffffffffff80821687528487018681528789018781528c885294865296519651935196167fffffffffffffffffffffffff00000000000000000000000000000000000000009091161770010000000000000000000000000000000063ffffffff93841602177fffffffffffffffff00000000ffffffffffffffffffffffffffffffffffffffff167401000000000000000000000000000000000000000092909516820294909417909355600490529190912080549190910465ffffffffffff169060146126bb83615cd1565b825465ffffffffffff9182166101009390930a9283029190920219909116179055506000828152600260205260409020805463ffffffff6c010000000000000000000000009091041690600c61271083615d11565b91906101000a81548163ffffffff021916908363ffffffff1602179055505081837fe1ba67e807ae0efa0a9549f9520ddc15c27f0a4dae2bc045e800ca66a940778f60405160405180910390a350505050565b60008281526006602090815260408083208484529091528120545b9392505050565b7f3bd2f1998541a778f2b17a84ff608b734af3ddf06cc43506453ef362dcdf17f16127af8161470d565b60006127ba8361471a565b6000818152600260205260409020600301549091506fffffffffffffffffffffffffffffffff1680612848576040517f08c379a000000000000000000000000000000000000000000000000000000000815260206004820152601160248201527f6e6f2065786365737320726577617264730000000000000000000000000000006044820152606401610daa565b600082815260026020526040902060030180547fffffffffffffffffffffffffffffffff00000000000000000000000000000000169055835161289e90336fffffffffffffffffffffffffffffffff8416614a3b565b6040516fffffffffffffffffffffffffffffffff8216815282907f7eba82e262e7cca68a380d1237f71bc407029792e9c6222b40e9f65d6d22d0519060200160405180910390a250505050565b60608167ffffffffffffffff811115612906576129066151a2565b60405190808252806020026020018201604052801561293957816020015b60608152602001906001900390816129245790505b50905060005b828110156129f7576000803086868581811061295d5761295d615ae3565b905060200281019061296f9190615d27565b60405161297d929190615d93565b600060405180830381855af49150503d80600081146129b8576040519150601f19603f3d011682016040523d82523d6000602084013e6129bd565b606091505b5091509150816129cf57805160208201fd5b808484815181106129e2576129e2615ae3565b6020908102919091010152505060010161293f565b5092915050565b7f892ea130fd6e079bb8cd940bf44abb9be25498d6f215492fb15067ef238b2d58612a288161470d565b428763ffffffff1610612a97576040517f08c379a000000000000000000000000000000000000000000000000000000000815260206004820152601760248201527f74696d65206d757374206265206265666f7265206e6f770000000000000000006044820152606401610daa565b600088815260026020818152604092839020835161012081018552815463ffffffff8082168352640100000000820481169483018590526801000000000000000082048116968301969096526c01000000000000000000000000810490951660608201526fffffffffffffffffffffffffffffffff7001000000000000000000000000000000009586900481166080830152600183015460a08301529382015460c082015260039091015480841660e083015293909304909116610100830152612bbd576040517f08c379a000000000000000000000000000000000000000000000000000000000815260206004820152601660248201527f6e6f6e2d6578697374656e7420696e63656e74697665000000000000000000006044820152606401610daa565b806020015163ffffffff168863ffffffff1611612c36576040517f08c379a000000000000000000000000000000000000000000000000000000000815260206004820152601a60248201527f74696d657374616d70203e206c61737455706461746554696d650000000000006044820152606401610daa565b600080612c438b8b610bf6565b90925090506000612c54868861590d565b9050806fffffffffffffffffffffffffffffffff16600003612d8357898460a0015114612cdd576040517f08c379a000000000000000000000000000000000000000000000000000000000815260206004820152601260248201527f696e76616c6964206d65726b6c65526f6f7400000000000000000000000000006044820152606401610daa565b6fffffffffffffffffffffffffffffffff881615612d57576040517f08c379a000000000000000000000000000000000000000000000000000000000815260206004820152601060248201527f726577617264206d7573742062652030000000000000000000000000000000006044820152606401610daa565b828460e001818151612d69919061590d565b6fffffffffffffffffffffffffffffffff16905250612f5f565b898460a0015103612df0576040517f08c379a000000000000000000000000000000000000000000000000000000000815260206004820152600f60248201527f73616d65206d65726b6c65526f6f7400000000000000000000000000000000006044820152606401610daa565b888460c0015103612e5d576040517f08c379a000000000000000000000000000000000000000000000000000000000815260206004820152600d60248201527f73616d65206970667348617368000000000000000000000000000000000000006044820152606401610daa565b826fffffffffffffffffffffffffffffffff16886fffffffffffffffffffffffffffffffff1614612eea576040517f08c379a000000000000000000000000000000000000000000000000000000000815260206004820152600e60248201527f696e76616c6964207265776172640000000000000000000000000000000000006044820152606401610daa565b806fffffffffffffffffffffffffffffffff16866fffffffffffffffffffffffffffffffff16846fffffffffffffffffffffffffffffffff16612f2d9190615da3565b612f379190615dba565b8461010001818151612f49919061590d565b6fffffffffffffffffffffffffffffffff169052505b63ffffffff82168452608084018051849190612f7c90839061590d565b9150906fffffffffffffffffffffffffffffffff1690816fffffffffffffffffffffffffffffffff16815250508a846020019063ffffffff16908163ffffffff1681525050898460a0018181525050888460c001818152505083600260008e815260200190815260200160002060008201518160000160006101000a81548163ffffffff021916908363ffffffff16021790555060208201518160000160046101000a81548163ffffffff021916908363ffffffff16021790555060408201518160000160086101000a81548163ffffffff021916908363ffffffff160217905550606082015181600001600c6101000a81548163ffffffff021916908363ffffffff16021790555060808201518160000160106101000a8154816fffffffffffffffffffffffffffffffff02191690836fffffffffffffffffffffffffffffffff16021790555060a0820151816001015560c0820151816002015560e08201518160030160006101000a8154816fffffffffffffffffffffffffffffffff02191690836fffffffffffffffffffffffffffffffff1602179055506101008201518160030160106101000a8154816fffffffffffffffffffffffffffffffff02191690836fffffffffffffffffffffffffffffffff1602179055509050508b7ffb09160bccd8fb0b8cba9a5467ab242832f6571db72c38d905bb404964cb310f8c86600001518d8d888d8d6040516131e8979695949392919063ffffffff9788168152959096166020860152604085019390935260608401919091526fffffffffffffffffffffffffffffffff908116608084015290811660a08301529190911660c082015260e00190565b60405180910390a2505050505050505050505050565b6000828152602081905260409020600101546132198161470d565b611cbc83836148e5565b7fb814ff4a26ea3ec5cd1fa579daad86324826254265f3acfec78303a19845b44961324d8161470d565b6000826fffffffffffffffffffffffffffffffff16116132c9576040517f08c379a000000000000000000000000000000000000000000000000000000000815260206004820152601760248201527f726577617264206d75737420626520706f7369746976650000000000000000006044820152606401610daa565b60008363ffffffff1611613339576040517f08c379a000000000000000000000000000000000000000000000000000000000815260206004820152601960248201527f6475726174696f6e206d75737420626520706f736974697665000000000000006044820152606401610daa565b7f00000000000000000000000000000000000000000000000000000000000000008363ffffffff1611156133c9576040517f08c379a000000000000000000000000000000000000000000000000000000000815260206004820152601e60248201527f696e63656e74697665206475726174696f6e20697320746f6f206c6f6e6700006044820152606401610daa565b60006133d48661471a565b60008181526002602052604090205490915068010000000000000000900463ffffffff168061345f576040517f08c379a000000000000000000000000000000000000000000000000000000000815260206004820152601660248201527f6e6f6e2d6578697374656e7420696e63656e74697665000000000000000000006044820152606401610daa565b61346a6001876158aa565b60008381526002602052604090205463ffffffff9081169116146134ea576040517f08c379a000000000000000000000000000000000000000000000000000000000815260206004820152600f60248201527f77726f6e6720706572696f6420696400000000000000000000000000000000006044820152606401610daa565b60006134f686836158f1565b905060405180606001604052808763ffffffff16876135159190615b41565b6fffffffffffffffffffffffffffffffff908116825263ffffffff80861660208085019190915285821660409485018190526000898152600383528581208e851682528352858120875181548986015199890151871674010000000000000000000000000000000000000000027fffffffffffffffff00000000ffffffffffffffffffffffffffffffffffffffff9a909716700100000000000000000000000000000000027fffffffffffffffffffffffff00000000000000000000000000000000000000009091169188169190911717979097169390931790955587825260029052919091208054680100000000000000009093027fffffffffffffffffffffffffffffffffffffffff00000000ffffffffffffffff9093169290921790915588516136479133903090891661474a565b6040805163ffffffff8981168252881660208201526fffffffffffffffffffffffffffffffff871681830152905184917f41f9f71cb1c8d0d8942fc1650ce24a291260a0ed8f1e05838001d2d93e2f8f94919081900360600190a25050505050505050565b7f3bd2f1998541a778f2b17a84ff608b734af3ddf06cc43506453ef362dcdf17f16136d68161470d565b60008385604001516136e891906158f1565b90506000836fffffffffffffffffffffffffffffffff1611613766576040517f08c379a000000000000000000000000000000000000000000000000000000000815260206004820152601760248201527f726577617264206d75737420626520706f7369746976650000000000000000006044820152606401610daa565b60008463ffffffff16116137d6576040517f08c379a000000000000000000000000000000000000000000000000000000000815260206004820152601960248201527f6475726174696f6e206d75737420626520706f736974697665000000000000006044820152606401610daa565b846040015163ffffffff1642111561384a576040517f08c379a000000000000000000000000000000000000000000000000000000000815260206004820152601b60248201527f737461727454696d65206d757374206265206166746572206e6f7700000000006044820152606401610daa565b7f000000000000000000000000000000000000000000000000000000000000000042866040015163ffffffff166138819190615cbe565b11156138e9576040517f08c379a000000000000000000000000000000000000000000000000000000000815260206004820152601e60248201527f73746172742074696d6520746f6f2066617220696e746f2066757475726500006044820152606401610daa565b7f00000000000000000000000000000000000000000000000000000000000000008463ffffffff161115613979576040517f08c379a000000000000000000000000000000000000000000000000000000000815260206004820152601e60248201527f696e63656e74697665206475726174696f6e20697320746f6f206c6f6e6700006044820152606401610daa565b7f0000000000000000000000000000000000000000000000000000000000000000856060015163ffffffff161115613a0d576040517f08c379a000000000000000000000000000000000000000000000000000000000815260206004820152600f60248201527f77726f6e67206c6f636b2074696d6500000000000000000000000000000000006044820152606401610daa565b8460c0015160020b8560a0015160020b13613a84576040517f08c379a000000000000000000000000000000000000000000000000000000000815260206004820152601560248201527f77726f6e67207469636b4c6f7765722072616e676500000000000000000000006044820152606401610daa565b84610100015160020b8560e0015160020b13613afc576040517f08c379a000000000000000000000000000000000000000000000000000000000815260206004820152601560248201527f77726f6e67207469636b55707065722072616e676500000000000000000000006044820152606401610daa565b6000613b078661471a565b60008181526002602052604090205490915068010000000000000000900463ffffffff1615613b92576040517f08c379a000000000000000000000000000000000000000000000000000000000815260206004820152601860248201527f696e63656e7469766520616c72656164792065786973747300000000000000006044820152606401610daa565b6000818152600260205260409081902080548883015163ffffffff908116640100000000027fffffffffffffffffffffffffffffffffffffffffffffffff00000000ffffffff8288166801000000000000000002167fffffffffffffffffffffffffffffffffffffffff0000000000000000ffffffff90931692909217919091179091558151606081019092528190613c2d90881687615b41565b6fffffffffffffffffffffffffffffffff90811682526040808a015163ffffffff90811660208086019190915287821694830194909452600086815260038552828120818052855282902085518154958701519690930151821674010000000000000000000000000000000000000000027fffffffffffffffff00000000ffffffffffffffffffffffffffffffffffffffff96909216700100000000000000000000000000000000027fffffffffffffffffffffffff0000000000000000000000000000000000000000909516928416929092179390931793909316919091179091558651613d219133903090881661474a565b856020015173ffffffffffffffffffffffffffffffffffffffff16866000015173ffffffffffffffffffffffffffffffffffffffff16827f03017909c0b50d1b7b5f231d80b878a986af7762beef7561e98d1f2512d8638d89604001518a606001518b608001518c60a001518d60c001518e60e001518f6101000151604051613ded979695949392919063ffffffff9788168152959096166020860152600293840b604086015291830b6060850152820b6080840152810b60a08301529190910b60c082015260e00190565b60405180910390a4604080516000815263ffffffff871660208201526fffffffffffffffffffffffffffffffff86169181019190915281907f41f9f71cb1c8d0d8942fc1650ce24a291260a0ed8f1e05838001d2d93e2f8f949060600161156f565b60008181526004602052604090205473ffffffffffffffffffffffffffffffffffffffff163314613edc576040517f08c379a000000000000000000000000000000000000000000000000000000000815260206004820152601a60248201527f6f6e6c79206f776e65722063616e207374616b6520746f6b656e0000000000006044820152606401610daa565b613ee68282613eea565b5050565b6000613ef58361471a565b60008181526002602052604090205490915063ffffffff6801000000000000000082048116916c0100000000000000000000000090041681613f93576040517f08c379a000000000000000000000000000000000000000000000000000000000815260206004820152601660248201527f6e6f6e2d6578697374656e7420696e63656e74697665000000000000000000006044820152606401610daa565b846040015163ffffffff164210158015613fb257508163ffffffff1642105b614018576040517f08c379a000000000000000000000000000000000000000000000000000000000815260206004820152601460248201527f696e63656e74697665206e6f74206163746976650000000000000000000000006044820152606401610daa565b6000838152600560209081526040808320878452909152902054700100000000000000000000000000000000900463ffffffff16156140b3576040517f08c379a000000000000000000000000000000000000000000000000000000000815260206004820152601460248201527f746f6b656e20616c7265616479207374616b65640000000000000000000000006044820152606401610daa565b6000806000806141047f00000000000000000000000000000000000000000000000000000000000000007f00000000000000000000000000000000000000000000000000000000000000008a614a79565b9350935093509350886020015173ffffffffffffffffffffffffffffffffffffffff168473ffffffffffffffffffffffffffffffffffffffff16146141ca576040517f08c379a0000000000000000000000000000000000000000000000000000000008152602060048201526024808201527f746f6b656e20706f6f6c206973206e6f742074686520696e63656e746976652060448201527f706f6f6c000000000000000000000000000000000000000000000000000000006064820152608401610daa565b6141d48383615dce565b60020b896080015160020b1315614247576040517f08c379a000000000000000000000000000000000000000000000000000000000815260206004820152601060248201527f77726f6e67207469636b2072616e6765000000000000000000000000000000006044820152606401610daa565b8260020b8960a0015160020b1215801561426b57508260020b8960c0015160020b13155b6142d1576040517f08c379a000000000000000000000000000000000000000000000000000000000815260206004820152600f60248201527f77726f6e67207469636b4c6f77657200000000000000000000000000000000006044820152606401610daa565b8160020b8960e0015160020b121580156142f657508160020b89610100015160020b13155b61435c576040517f08c379a000000000000000000000000000000000000000000000000000000000815260206004820152600f60248201527f77726f6e67207469636b557070657200000000000000000000000000000000006044820152606401610daa565b6000816fffffffffffffffffffffffffffffffff16116143fe576040517f08c379a000000000000000000000000000000000000000000000000000000000815260206004820152602360248201527f63616e6e6f74207374616b6520746f6b656e20776974682030206c697175696460448201527f69747900000000000000000000000000000000000000000000000000000000006064820152608401610daa565b6000878152600660205260409020614420908963ffffffff80891690614b6c16565b506000888152600460205260409020805474010000000000000000000000000000000000000000900465ffffffffffff1690601461445d83615e0f565b825465ffffffffffff9182166101009390930a9283029190920219909116179055506000878152600260205260409020805463ffffffff6c010000000000000000000000009091041690600c6144b283615e38565b825463ffffffff9182166101009390930a9283029190920219909116179055506040517fa38807f2000000000000000000000000000000000000000000000000000000008152600284810b600483015283900b602482015260009073ffffffffffffffffffffffffffffffffffffffff86169063a38807f290604401606060405180830381865afa15801561454b573d6000803e3d6000fd5b505050506040513d601f19601f8201168201806040525081019061456f9190615e54565b925050506040518060600160405280600560008b815260200190815260200160002060008c815260200190815260200160002060000160009054906101000a90046fffffffffffffffffffffffffffffffff166fffffffffffffffffffffffffffffffff1681526020014263ffffffff1681526020018263ffffffff16815250600560008a815260200190815260200160002060008b815260200190815260200160002060008201518160000160006101000a8154816fffffffffffffffffffffffffffffffff02191690836fffffffffffffffffffffffffffffffff16021790555060208201518160000160106101000a81548163ffffffff021916908363ffffffff16021790555060408201518160000160146101000a81548163ffffffff021916908363ffffffff16021790555090505087897f9aeb7974ad257732a0bf7647a460a1a36f696e4466be2548ff67d42ac07de00584846040516146f99291906fffffffffffffffffffffffffffffffff92909216825263ffffffff16602082015260400190565b60405180910390a350505050505050505050565b6147178133614bc2565b50565b60008160405160200161472d9190615e9c565b604051602081830303815290604052805190602001209050919050565b60405173ffffffffffffffffffffffffffffffffffffffff8481166024830152838116604483015260648201839052611cbc9186918216906323b872dd906084015b604051602081830303815290604052915060e01b6020820180517bffffffffffffffffffffffffffffffffffffffffffffffffffffffff8381831617835250505050614c48565b6000826147e08584614cde565b14949350505050565b60008281526020818152604080832073ffffffffffffffffffffffffffffffffffffffff8516845290915281205460ff166148dd5760008381526020818152604080832073ffffffffffffffffffffffffffffffffffffffff86168452909152902080547fffffffffffffffffffffffffffffffffffffffffffffffffffffffffffffff0016600117905561487b3390565b73ffffffffffffffffffffffffffffffffffffffff168273ffffffffffffffffffffffffffffffffffffffff16847f2f8788117e7eff1d82e926ec794901d17c78024a50270940304540a733656f0d60405160405180910390a4506001610bf0565b506000610bf0565b60008281526020818152604080832073ffffffffffffffffffffffffffffffffffffffff8516845290915281205460ff16156148dd5760008381526020818152604080832073ffffffffffffffffffffffffffffffffffffffff8616808552925280832080547fffffffffffffffffffffffffffffffffffffffffffffffffffffffffffffff0016905551339286917ff6391f5c32d9c69d2a47ea670b442974b53935d1edc7fd64eb21e047a839171b9190a4506001610bf0565b60008281526001840160205260408120548015614a315760006149c4600183615cbe565b905060006149d3600186615cbe565b9050808214614a045760008181526020888152604080832054858452818420819055835260018a0190915290208390555b6000908152602087815260408083208390558783526001808a01909252822091909155925061277e915050565b600091505061277e565b60405173ffffffffffffffffffffffffffffffffffffffff838116602483015260448201839052611d1b91859182169063a9059cbb9060640161478c565b60008060008060008060008873ffffffffffffffffffffffffffffffffffffffff166399fbab88896040518263ffffffff1660e01b8152600401614abf91815260200190565b61018060405180830381865afa158015614add573d6000803e3d6000fd5b505050506040513d601f19601f82011682018060405250810190614b019190615969565b50506040805160608101825273ffffffffffffffffffffffffffffffffffffffff808b1682528916602082015262ffffff881691810191909152949f50929d50909b50949950929750909550614b5e94508e93509150614d219050565b965050505093509350935093565b6000828152600184016020526040812054614bba576000828152602085905260409020839055614b9d826001615f7e565b60008481526001808701602052604090912091909155905061277e565b50600061277e565b60008281526020818152604080832073ffffffffffffffffffffffffffffffffffffffff8516845290915290205460ff16613ee6576040517fe2517d3f00000000000000000000000000000000000000000000000000000000815273ffffffffffffffffffffffffffffffffffffffff8216600482015260248101839052604401610daa565b6000614c6a73ffffffffffffffffffffffffffffffffffffffff841683614e7a565b90508051600014158015614c8f575080806020019051810190614c8d9190615f91565b155b15611d1b576040517f5274afe700000000000000000000000000000000000000000000000000000000815273ffffffffffffffffffffffffffffffffffffffff84166004820152602401610daa565b600081815b8451811015614d1957614d0f82868381518110614d0257614d02615ae3565b6020026020010151614e88565b9150600101614ce3565b509392505050565b6000816020015173ffffffffffffffffffffffffffffffffffffffff16826000015173ffffffffffffffffffffffffffffffffffffffff1610614d6357600080fd5b8151602080840151604080860151815173ffffffffffffffffffffffffffffffffffffffff95861681860152949092168482015262ffffff90911660608085019190915281518085038201815260808501909252815191909201207fff0000000000000000000000000000000000000000000000000000000000000060a08401529085901b7fffffffffffffffffffffffffffffffffffffffff0000000000000000000000001660a183015260b58201527fe34f199b19b2b4f47f68442619d555527d244f78a3297ea89325f843f87b8b5460d582015260f501604080517fffffffffffffffffffffffffffffffffffffffffffffffffffffffffffffffe081840301815291905280516020909101209392505050565b606061277e83836000614eb7565b6000818310614ea457600082815260208490526040902061277e565b600083815260208390526040902061277e565b606081471015614ef5576040517fcd786059000000000000000000000000000000000000000000000000000000008152306004820152602401610daa565b6000808573ffffffffffffffffffffffffffffffffffffffff168486604051614f1e9190615fb3565b60006040518083038185875af1925050503d8060008114614f5b576040519150601f19603f3d011682016040523d82523d6000602084013e614f60565b606091505b5091509150614f70868383614f7a565b9695505050505050565b606082614f8f57614f8a82615009565b61277e565b8151158015614fb3575073ffffffffffffffffffffffffffffffffffffffff84163b155b15615002576040517f9996b31500000000000000000000000000000000000000000000000000000000815273ffffffffffffffffffffffffffffffffffffffff85166004820152602401610daa565b508061277e565b8051156150195780518082602001fd5b6040517f1425ea4200000000000000000000000000000000000000000000000000000000815260040160405180910390fd5b60006020828403121561505d57600080fd5b81357fffffffff000000000000000000000000000000000000000000000000000000008116811461277e57600080fd5b63ffffffff8116811461471757600080fd5b80356150aa8161508d565b919050565b600080604083850312156150c257600080fd5b8235915060208301356150d48161508d565b809150509250929050565b73ffffffffffffffffffffffffffffffffffffffff8116811461471757600080fd5b60008060008060006080868803121561511957600080fd5b8535615124816150df565b94506020860135615134816150df565b935060408601359250606086013567ffffffffffffffff81111561515757600080fd5b8601601f8101881361516857600080fd5b803567ffffffffffffffff81111561517f57600080fd5b88602082840101111561519157600080fd5b959894975092955050506020019190565b7f4e487b7100000000000000000000000000000000000000000000000000000000600052604160045260246000fd5b604051610120810167ffffffffffffffff811182821017156151f5576151f56151a2565b60405290565b604051601f82017fffffffffffffffffffffffffffffffffffffffffffffffffffffffffffffffe016810167ffffffffffffffff81118282101715615242576152426151a2565b604052919050565b80356150aa816150df565b8060020b811461471757600080fd5b80356150aa81615255565b6000610120828403121561528257600080fd5b61528a6151d1565b90506152958261524a565b81526152a36020830161524a565b60208201526152b46040830161509f565b60408201526152c56060830161509f565b60608201526152d660808301615264565b60808201526152e760a08301615264565b60a08201526152f860c08301615264565b60c082015261530960e08301615264565b60e082015261531b6101008301615264565b61010082015292915050565b6fffffffffffffffffffffffffffffffff8116811461471757600080fd5b6000806000610160848603121561535b57600080fd5b615365858561526f565b92506101208401356153768161508d565b915061014084013561538781615327565b809150509250925092565b6000602082840312156153a457600080fd5b5035919050565b600060808284031280156153be57600080fd5b509092915050565b600080604083850312156153d957600080fd5b8235915060208301356150d4816150df565b600067ffffffffffffffff821115615405576154056151a2565b5060051b60200190565b600080600080610180858703121561542657600080fd5b615430868661526f565b9350610120850135925061014085013561544981615327565b915061016085013567ffffffffffffffff81111561546657600080fd5b8501601f8101871361547757600080fd5b803561548a615485826153eb565b6151fb565b8082825260208201915060208360051b8501019250898311156154ac57600080fd5b6020840193505b828410156154ce5783358252602093840193909101906154b3565b969995985093965050505050565b600061012082840312156154ef57600080fd5b61277e838361526f565b60008060006060848603121561550e57600080fd5b833592506020840135615520816150df565b9150604084013567ffffffffffffffff81111561553c57600080fd5b8401601f8101861361554d57600080fd5b803567ffffffffffffffff811115615567576155676151a2565b61559860207fffffffffffffffffffffffffffffffffffffffffffffffffffffffffffffffe0601f840116016151fb565b8181528760208385010111156155ad57600080fd5b816020840160208301376000602083830101528093505050509250925092565b6000602082840312156155df57600080fd5b813561277e816150df565b60008061014083850312156155fe57600080fd5b615608848461526f565b94610120939093013593505050565b6000806040838503121561562a57600080fd5b50508035926020909101359150565b6000806020838503121561564c57600080fd5b823567ffffffffffffffff81111561566357600080fd5b8301601f8101851361567457600080fd5b803567ffffffffffffffff81111561568b57600080fd5b8560208260051b84010111156156a057600080fd5b6020919091019590945092505050565b60005b838110156156cb5781810151838201526020016156b3565b50506000910152565b600081518084526156ec8160208601602086016156b0565b601f017fffffffffffffffffffffffffffffffffffffffffffffffffffffffffffffffe0169290920160200192915050565b6000602082016020835280845180835260408501915060408160051b86010192506020860160005b82811015615795577fffffffffffffffffffffffffffffffffffffffffffffffffffffffffffffffc08786030184526157808583516156d4565b94506020938401939190910190600101615746565b50929695505050505050565b600080600080600080600060e0888a0312156157bc57600080fd5b8735965060208801356157ce8161508d565b9550604088013594506060880135935060808801356157ec81615327565b925060a08801356157fc81615327565b915060c088013561580c81615327565b8091505092959891949750929550565b600080600080610180858703121561583357600080fd5b61583d868661526f565b935061012085013561584e8161508d565b925061014085013561585f8161508d565b915061016085013561587081615327565b939692955090935050565b7f4e487b7100000000000000000000000000000000000000000000000000000000600052601160045260246000fd5b63ffffffff8281168282160390811115610bf057610bf061587b565b6fffffffffffffffffffffffffffffffff81811683821602908116908181146129f7576129f761587b565b63ffffffff8181168382160190811115610bf057610bf061587b565b6fffffffffffffffffffffffffffffffff8181168382160190811115610bf057610bf061587b565b80516150aa816150df565b805162ffffff811681146150aa57600080fd5b80516150aa81615255565b80516150aa81615327565b6000806000806000806000806000806000806101808d8f03121561598c57600080fd5b8c516bffffffffffffffffffffffff811681146159a857600080fd5b9b506159b660208e01615935565b9a506159c460408e01615935565b99506159d260608e01615935565b98506159e060808e01615940565b97506159ee60a08e01615953565b96506159fc60c08e01615953565b9550615a0a60e08e0161595e565b6101008e01516101208f015191965094509250615a2a6101408e0161595e565b9150615a396101608e0161595e565b90509295989b509295989b509295989b565b600060208284031215615a5d57600080fd5b813567ffffffffffffffff811115615a7457600080fd5b8201601f81018413615a8557600080fd5b8035615a93615485826153eb565b8082825260208201915060206101208402850101925086831115615ab657600080fd5b6020840193505b82841015614f7057615acf878561526f565b825260208201915061012084019350615abd565b7f4e487b7100000000000000000000000000000000000000000000000000000000600052603260045260246000fd5b7f4e487b7100000000000000000000000000000000000000000000000000000000600052601260045260246000fd5b60006fffffffffffffffffffffffffffffffff831680615b6357615b63615b12565b806fffffffffffffffffffffffffffffffff84160491505092915050565b81358152608081016020830135615b97816150df565b73ffffffffffffffffffffffffffffffffffffffff1660208301526040830135615bc081615327565b6fffffffffffffffffffffffffffffffff1660408301526060830135615be581615327565b6fffffffffffffffffffffffffffffffff811660608401525092915050565b60008060408385031215615c1757600080fd5b505080516020909101519092909150565b600060208284031215615c3a57600080fd5b813561277e81615327565b6fffffffffffffffffffffffffffffffff8281168282160390811115610bf057610bf061587b565b73ffffffffffffffffffffffffffffffffffffffff8516815273ffffffffffffffffffffffffffffffffffffffff84166020820152826040820152608060608201526000614f7060808301846156d4565b81810381811115610bf057610bf061587b565b600065ffffffffffff821680615ce957615ce961587b565b7fffffffffffffffffffffffffffffffffffffffffffffffffffffffffffffffff0192915050565b600063ffffffff821680615ce957615ce961587b565b60008083357fffffffffffffffffffffffffffffffffffffffffffffffffffffffffffffffe1843603018112615d5c57600080fd5b83018035915067ffffffffffffffff821115615d7757600080fd5b602001915036819003821315615d8c57600080fd5b9250929050565b8183823760009101908152919050565b8082028115828204841417610bf057610bf061587b565b600082615dc957615dc9615b12565b500490565b600282810b9082900b037fffffffffffffffffffffffffffffffffffffffffffffffffffffffffff8000008112627fffff82131715610bf057610bf061587b565b600065ffffffffffff821665ffffffffffff8103615e2f57615e2f61587b565b60010192915050565b600063ffffffff821663ffffffff8103615e2f57615e2f61587b565b600080600060608486031215615e6957600080fd5b83518060060b8114615e7a57600080fd5b6020850151909350615e8b816150df565b60408501519092506153878161508d565b815173ffffffffffffffffffffffffffffffffffffffff168152602080830151610120830191615ee39084018273ffffffffffffffffffffffffffffffffffffffff169052565b506040830151615efb604084018263ffffffff169052565b506060830151615f13606084018263ffffffff169052565b506080830151615f28608084018260020b9052565b5060a0830151615f3d60a084018260020b9052565b5060c0830151615f5260c084018260020b9052565b5060e0830151615f6760e084018260020b9052565b506101008301516129f761010084018260020b9052565b80820180821115610bf057610bf061587b565b600060208284031215615fa357600080fd5b8151801515811461277e57600080fd5b60008251615fc58184602087016156b0565b919091019291505056fea164736f6c634300081a000a",
  "devdoc": {
    "errors": {
      "AccessControlBadConfirmation()": [
        {
          "details": "The caller of a function is not the expected one. NOTE: Don't confuse with {AccessControlUnauthorizedAccount}."
        }
      ],
      "AccessControlUnauthorizedAccount(address,bytes32)": [
        {
          "details": "The `account` is missing a role."
        }
      ],
      "AddressEmptyCode(address)": [
        {
          "details": "There's no code at `target` (it is not a contract)."
        }
      ],
      "AddressInsufficientBalance(address)": [
        {
          "details": "The ETH balance of the account is not enough to perform the operation."
        }
      ],
      "FailedInnerCall()": [
        {
          "details": "A call to an address target failed. The target may have reverted."
        }
      ],
      "SafeERC20FailedOperation(address)": [
        {
          "details": "An operation with an ERC20 token failed."
        }
      ]
    },
    "events": {
      "DepositTransferred(uint256,address,address)": {
        "params": {
          "newOwner": "The owner after the deposit was transferred",
          "oldOwner": "The owner before the deposit was transferred",
          "tokenId": "The ID of the deposit (and token) that is being transferred"
        }
      },
      "ExcessRewardsRefunded(bytes32,uint128)": {
        "params": {
          "incentiveId": "The incentive which has excess rewards"
        }
      },
      "ExternalRewardCollected(bytes32,address,uint256)": {
        "params": {
          "incentiveId": "The incentive",
          "reward": "The amount of reward tokens claimed",
          "to": "externalRewardDistributor address at the time on transaction"
        }
      },
      "FeeCollected(address,uint256,address,uint128,uint128)": {
        "params": {
          "owner": "Owner account of the deposited token when the fee collected",
          "recipient": "Fee recepient",
          "tokenId": "The unique identifier of an Ubeswap V3 LP token"
        }
      },
      "IncentiveCreated(bytes32,address,address,uint32,uint32,int24,int24,int24,int24,int24)": {
        "params": {
          "lockTime": "Minimum time that is required for unstaking a position",
          "maxTickLower": "Maximum value of tickLower for a position to be staked",
          "maxTickUpper": "Maximum value of tickUpper for a position to be staked",
          "minTickLower": "Minimum value of tickLower for a position to be staked",
          "minTickUpper": "Minimum value of tickUpper for a position to be staked",
          "minimumTickRange": "Minimum value of (tickUpper - tickLower) for a position to be staked",
          "pool": "The Uniswap V3 compatible pool",
          "rewardToken": "The token being distributed as a reward",
          "startTime": "The time when the incentive program begins"
        }
      },
      "RewardCollected(uint256,bytes32,address,uint256)": {
        "params": {
          "incentiveId": "The incentive",
          "reward": "The amount of reward tokens claimed",
          "to": "The address where claimed rewards were sent to",
          "tokenId": "The unique identifier of an Ubeswap V3 LP token"
        }
      },
      "RoleAdminChanged(bytes32,bytes32,bytes32)": {
        "details": "Emitted when `newAdminRole` is set as ``role``'s admin role, replacing `previousAdminRole` `DEFAULT_ADMIN_ROLE` is the starting admin for all roles, despite {RoleAdminChanged} not being emitted signaling this."
      },
      "RoleGranted(bytes32,address,address)": {
        "details": "Emitted when `account` is granted `role`. `sender` is the account that originated the contract call, an admin role bearer except when using {AccessControl-_setupRole}."
      },
      "RoleRevoked(bytes32,address,address)": {
        "details": "Emitted when `account` is revoked `role`. `sender` is the account that originated the contract call:   - if using `revokeRole`, it is the admin role bearer   - if using `renounceRole`, it is the role bearer (i.e. `account`)"
      },
      "TokenStaked(uint256,bytes32,uint128,uint32)": {
        "params": {
          "incentiveId": "The incentive in which the token is staking",
          "liquidity": "The amount of liquidity staked",
          "tokenId": "The unique identifier of an Ubeswap V3 LP token"
        }
      },
      "TokenUnstaked(uint256,bytes32)": {
        "params": {
          "incentiveId": "The incentive in which the token is staking",
          "tokenId": "The unique identifier of an Ubeswap V3 LP token"
        }
      }
    },
    "kind": "dev",
    "methods": {
      "collectReward((address,address,uint32,uint32,int24,int24,int24,int24,int24),uint256,uint128,bytes32[])": {
        "params": {
          "accumulatedRewards": "accumulated rewards for the position",
          "key": "The key of the incentive for which to unstake the NFT",
          "proof": "Merkle proof for rewards",
          "tokenId": "The ID of the token that has rewards"
        }
      },
      "constructor": {
        "params": {
          "_factory": "the Uniswap V3 compatible factory",
          "_maxIncentivePeriodDuration": "the max amount of seconds into the future the incentive startTime can be set",
          "_maxIncentiveStartLeadTime": "the max duration of an incentive in seconds",
          "_nonfungiblePositionManager": "the NFT position manager contract address"
        }
      },
      "createIncentive((address,address,uint32,uint32,int24,int24,int24,int24,int24),uint32,uint128)": {
        "params": {
          "duration": "The amount of seconds for the first period",
          "key": "Details of the incentive to create",
          "reward": "The amount of reward tokens to be distributed on the first period"
        }
      },
      "extendIncentive((address,address,uint32,uint32,int24,int24,int24,int24,int24),uint32,uint32,uint128)": {
        "params": {
          "duration": "The amount of seconds for the new period",
          "key": "Details of the incentive to extend",
          "newPeriodId": "the id for the new period. It should be one more from the previous period. This is taken for security",
          "reward": "The amount of reward tokens to be distributed on the new period"
        }
      },
      "getRoleAdmin(bytes32)": {
        "details": "Returns the admin role that controls `role`. See {grantRole} and {revokeRole}. To change a role's admin, use {_setRoleAdmin}."
      },
      "grantRole(bytes32,address)": {
        "details": "Grants `role` to `account`. If `account` had not been already granted `role`, emits a {RoleGranted} event. Requirements: - the caller must have ``role``'s admin role. May emit a {RoleGranted} event."
      },
      "hasRole(bytes32,address)": {
        "details": "Returns `true` if `account` has been granted `role`."
      },
      "multicall(bytes[])": {
        "details": "The `msg.value` should not be trusted for any method callable from multicall.",
        "params": {
          "data": "The encoded function data for each of the calls to make to this contract"
        },
        "returns": {
          "results": "The results from each of the calls passed in via data"
        }
      },
      "onERC721Received(address,address,uint256,bytes)": {
        "details": "Whenever an {IERC721} `tokenId` token is transferred to this contract via {IERC721-safeTransferFrom} by `operator` from `from`, this function is called. It must return its Solidity selector to confirm the token transfer. If any other value is returned or the interface is not implemented by the recipient, the transfer will be reverted. The selector can be obtained in Solidity with `IERC721Receiver.onERC721Received.selector`."
      },
      "refundExcessRewards((address,address,uint32,uint32,int24,int24,int24,int24,int24))": {
        "params": {
          "key": "Details of the incentive to end"
        }
      },
      "renounceRole(bytes32,address)": {
        "details": "Revokes `role` from the calling account. Roles are often managed via {grantRole} and {revokeRole}: this function's purpose is to provide a mechanism for accounts to lose their privileges if they are compromised (such as when a trusted device is misplaced). If the calling account had been revoked `role`, emits a {RoleRevoked} event. Requirements: - the caller must be `callerConfirmation`. May emit a {RoleRevoked} event."
      },
      "revokeRole(bytes32,address)": {
        "details": "Revokes `role` from `account`. If `account` had been granted `role`, emits a {RoleRevoked} event. Requirements: - the caller must have ``role``'s admin role. May emit a {RoleRevoked} event."
      },
      "stakeToken((address,address,uint32,uint32,int24,int24,int24,int24,int24),uint256)": {
        "params": {
          "key": "The key of the incentive for which to stake the NFT",
          "tokenId": "The ID of the token to stake"
        }
      },
      "supportsInterface(bytes4)": {
        "details": "See {IERC165-supportsInterface}."
      },
      "transferDeposit(uint256,address)": {
        "params": {
          "to": "The new owner of the deposit",
          "tokenId": "The ID of the token (and the deposit) to transfer"
        }
      },
      "unstakeToken((address,address,uint32,uint32,int24,int24,int24,int24,int24),uint256)": {
        "params": {
          "key": "The key of the incentive for which to unstake the NFT",
          "tokenId": "The ID of the token to unstake"
        }
      },
      "updateIncentiveDistributionInfo(bytes32,uint32,bytes32,bytes32,uint128,uint128,uint128)": {
        "params": {
          "incentiveId": "The ID of the incentive to be updated",
          "timestamp": "The timestamp of the block that the calculation is done on"
        }
      },
      "withdrawToken(uint256,address,bytes)": {
        "params": {
          "data": "An optional data array that will be passed along to the `to` address via the NFT safeTransferFrom",
          "to": "The address where the LP token will be sent",
          "tokenId": "The unique identifier of an Ubeswap V3 LP token"
        }
      }
    },
    "stateVariables": {
      "deposits": {
        "details": "deposits[tokenId] => Deposit"
      },
      "incentivePeriods": {
        "details": "incentivePeriods[incentiveId][periodId] => IncentivePeriod"
      },
      "incentives": {
        "details": "bytes32 refers to the return value of IncentiveId.compute"
      },
      "stakes": {
        "details": "stakes[incentiveId][tokenId] => Stake"
      }
    },
    "title": "Off-chain assisted Ubeswap V3 Farming Protocol",
    "version": 1
  },
  "userdoc": {
    "events": {
      "DepositTransferred(uint256,address,address)": {
        "notice": "Emitted when ownership of a deposit changes"
      },
      "ExcessRewardsRefunded(bytes32,uint128)": {
        "notice": "Event that can be emitted when excess rewards refunded"
      },
      "ExternalRewardCollected(bytes32,address,uint256)": {
        "notice": "Event emitted when externalRewardDistributor contract collects reward"
      },
      "FeeCollected(address,uint256,address,uint128,uint128)": {
        "notice": "Event emitted when a fee collected from a pool"
      },
      "IncentiveCreated(bytes32,address,address,uint32,uint32,int24,int24,int24,int24,int24)": {
        "notice": "Event emitted when a liquidity mining incentive has been created"
      },
      "RewardCollected(uint256,bytes32,address,uint256)": {
        "notice": "Event emitted when a reward collected for an incentive"
      },
      "TokenStaked(uint256,bytes32,uint128,uint32)": {
        "notice": "Event emitted when a Ubeswap V3 LP token has been staked"
      },
      "TokenUnstaked(uint256,bytes32)": {
        "notice": "Event emitted when a Ubeswap V3 LP token has been unstaked"
      }
    },
    "kind": "user",
    "methods": {
      "collectExternalReward((address,address,uint32,uint32,int24,int24,int24,int24,int24))": {
        "notice": "Transfers the rewards that are accumulated for the external reward distributor"
      },
      "collectReward((address,address,uint32,uint32,int24,int24,int24,int24,int24),uint256,uint128,bytes32[])": {
        "notice": "Transfers the rewards that are accumulated for the token in the incentive"
      },
      "createIncentive((address,address,uint32,uint32,int24,int24,int24,int24,int24),uint32,uint128)": {
        "notice": "Creates a new liquidity mining incentive program"
      },
      "extendIncentive((address,address,uint32,uint32,int24,int24,int24,int24,int24),uint32,uint32,uint128)": {
        "notice": "Creates a new period for the incentive"
      },
      "externalRewardDistributor()": {
        "notice": "Address of the external reward distributor for the liquidity managers"
      },
      "factory()": {
        "notice": "The Uniswap V3 compatible Factory"
      },
      "increasePeriodReward((address,address,uint32,uint32,int24,int24,int24,int24,int24),uint32,uint128)": {
        "notice": "Add reward for already created and not started period"
      },
      "maxIncentivePeriodDuration()": {
        "notice": "The max duration of an incentive in seconds"
      },
      "maxIncentiveStartLeadTime()": {
        "notice": "The max amount of seconds into the future the incentive startTime can be set"
      },
      "maxLockTime()": {
        "notice": "The max duration oc lock time that can be given to an incentive"
      },
      "multicall(bytes[])": {
        "notice": "Call multiple functions in the current contract and return the data from all of them if they all succeed"
      },
      "nonfungiblePositionManager()": {
        "notice": "The nonfungible position manager with which this staking contract is compatible"
      },
      "onERC721Received(address,address,uint256,bytes)": {
        "notice": "Upon receiving a Ubeswap V3 ERC721, creates the token deposit setting owner to `from`. Also stakes token in one or more incentives if properly formatted `data` has a length > 0."
      },
      "refundExcessRewards((address,address,uint32,uint32,int24,int24,int24,int24,int24))": {
        "notice": "Refunds excess rewards for the given incentive"
      },
      "stakeToken((address,address,uint32,uint32,int24,int24,int24,int24,int24),uint256)": {
        "notice": "Stakes a Ubeswap V3 LP token"
      },
      "transferDeposit(uint256,address)": {
        "notice": "Transfers ownership of a deposit from the sender to the given recipient"
      },
      "unstakeToken((address,address,uint32,uint32,int24,int24,int24,int24,int24),uint256)": {
        "notice": "Unstakes a Ubeswap V3 LP token"
      },
      "updateExternalRewardDistributor(address)": {
        "notice": "Update function for externalRewardDistributor"
      },
      "updateIncentiveDistributionInfo(bytes32,uint32,bytes32,bytes32,uint128,uint128,uint128)": {
        "notice": "Update function for total liqudity seconds that is calculated off-chain"
      },
      "withdrawToken(uint256,address,bytes)": {
        "notice": "Withdraws a Ubeswap V3 LP token `tokenId` from this contract to the recipient `to`"
      }
    },
    "version": 1
  },
  "storageLayout": {
    "storage": [
      {
        "astId": 26,
        "contract": "contracts/UbeswapV3Farming.sol:UbeswapV3Farming",
        "label": "_roles",
        "offset": 0,
        "slot": "0",
        "type": "t_mapping(t_bytes32,t_struct(RoleData)21_storage)"
      },
      {
        "astId": 2011,
        "contract": "contracts/UbeswapV3Farming.sol:UbeswapV3Farming",
        "label": "externalRewardDistributor",
        "offset": 0,
        "slot": "1",
        "type": "t_address"
      },
      {
        "astId": 2018,
        "contract": "contracts/UbeswapV3Farming.sol:UbeswapV3Farming",
        "label": "incentives",
        "offset": 0,
        "slot": "2",
        "type": "t_mapping(t_bytes32,t_struct(Incentive)1960_storage)"
      },
      {
        "astId": 2027,
        "contract": "contracts/UbeswapV3Farming.sol:UbeswapV3Farming",
        "label": "incentivePeriods",
        "offset": 0,
        "slot": "3",
        "type": "t_mapping(t_bytes32,t_mapping(t_uint32,t_struct(IncentivePeriod)1967_storage))"
      },
      {
        "astId": 2034,
        "contract": "contracts/UbeswapV3Farming.sol:UbeswapV3Farming",
        "label": "deposits",
        "offset": 0,
        "slot": "4",
        "type": "t_mapping(t_uint256,t_struct(Deposit)1977_storage)"
      },
      {
        "astId": 2043,
        "contract": "contracts/UbeswapV3Farming.sol:UbeswapV3Farming",
        "label": "stakes",
        "offset": 0,
        "slot": "5",
        "type": "t_mapping(t_bytes32,t_mapping(t_uint256,t_struct(Stake)1985_storage))"
      },
      {
        "astId": 2048,
        "contract": "contracts/UbeswapV3Farming.sol:UbeswapV3Farming",
        "label": "_stakedTokens",
        "offset": 0,
        "slot": "6",
        "type": "t_mapping(t_bytes32,t_struct(UintSet)5014_storage)"
      }
    ],
    "types": {
      "t_address": {
        "encoding": "inplace",
        "label": "address",
        "numberOfBytes": "20"
      },
      "t_bool": {
        "encoding": "inplace",
        "label": "bool",
        "numberOfBytes": "1"
      },
      "t_bytes32": {
        "encoding": "inplace",
        "label": "bytes32",
        "numberOfBytes": "32"
      },
      "t_int24": {
        "encoding": "inplace",
        "label": "int24",
        "numberOfBytes": "3"
      },
      "t_mapping(t_address,t_bool)": {
        "encoding": "mapping",
        "key": "t_address",
        "label": "mapping(address => bool)",
        "numberOfBytes": "32",
        "value": "t_bool"
      },
      "t_mapping(t_bytes32,t_mapping(t_uint256,t_struct(Stake)1985_storage))": {
        "encoding": "mapping",
        "key": "t_bytes32",
        "label": "mapping(bytes32 => mapping(uint256 => struct UbeswapV3Farming.Stake))",
        "numberOfBytes": "32",
        "value": "t_mapping(t_uint256,t_struct(Stake)1985_storage)"
      },
      "t_mapping(t_bytes32,t_mapping(t_uint32,t_struct(IncentivePeriod)1967_storage))": {
        "encoding": "mapping",
        "key": "t_bytes32",
        "label": "mapping(bytes32 => mapping(uint32 => struct UbeswapV3Farming.IncentivePeriod))",
        "numberOfBytes": "32",
        "value": "t_mapping(t_uint32,t_struct(IncentivePeriod)1967_storage)"
      },
      "t_mapping(t_bytes32,t_struct(Incentive)1960_storage)": {
        "encoding": "mapping",
        "key": "t_bytes32",
        "label": "mapping(bytes32 => struct UbeswapV3Farming.Incentive)",
        "numberOfBytes": "32",
        "value": "t_struct(Incentive)1960_storage"
      },
      "t_mapping(t_bytes32,t_struct(RoleData)21_storage)": {
        "encoding": "mapping",
        "key": "t_bytes32",
        "label": "mapping(bytes32 => struct AccessControl.RoleData)",
        "numberOfBytes": "32",
        "value": "t_struct(RoleData)21_storage"
      },
      "t_mapping(t_bytes32,t_struct(UintSet)5014_storage)": {
        "encoding": "mapping",
        "key": "t_bytes32",
        "label": "mapping(bytes32 => struct KnownLengthSet.UintSet)",
        "numberOfBytes": "32",
        "value": "t_struct(UintSet)5014_storage"
      },
      "t_mapping(t_uint256,t_struct(Deposit)1977_storage)": {
        "encoding": "mapping",
        "key": "t_uint256",
        "label": "mapping(uint256 => struct UbeswapV3Farming.Deposit)",
        "numberOfBytes": "32",
        "value": "t_struct(Deposit)1977_storage"
      },
      "t_mapping(t_uint256,t_struct(Stake)1985_storage)": {
        "encoding": "mapping",
        "key": "t_uint256",
        "label": "mapping(uint256 => struct UbeswapV3Farming.Stake)",
        "numberOfBytes": "32",
        "value": "t_struct(Stake)1985_storage"
      },
      "t_mapping(t_uint256,t_uint256)": {
        "encoding": "mapping",
        "key": "t_uint256",
        "label": "mapping(uint256 => uint256)",
        "numberOfBytes": "32",
        "value": "t_uint256"
      },
      "t_mapping(t_uint32,t_struct(IncentivePeriod)1967_storage)": {
        "encoding": "mapping",
        "key": "t_uint32",
        "label": "mapping(uint32 => struct UbeswapV3Farming.IncentivePeriod)",
        "numberOfBytes": "32",
        "value": "t_struct(IncentivePeriod)1967_storage"
      },
      "t_struct(Deposit)1977_storage": {
        "encoding": "inplace",
        "label": "struct UbeswapV3Farming.Deposit",
        "members": [
          {
            "astId": 1970,
            "contract": "contracts/UbeswapV3Farming.sol:UbeswapV3Farming",
            "label": "owner",
            "offset": 0,
            "slot": "0",
            "type": "t_address"
          },
          {
            "astId": 1972,
            "contract": "contracts/UbeswapV3Farming.sol:UbeswapV3Farming",
            "label": "numberOfStakes",
            "offset": 20,
            "slot": "0",
            "type": "t_uint48"
          },
          {
            "astId": 1974,
            "contract": "contracts/UbeswapV3Farming.sol:UbeswapV3Farming",
            "label": "tickLower",
            "offset": 26,
            "slot": "0",
            "type": "t_int24"
          },
          {
            "astId": 1976,
            "contract": "contracts/UbeswapV3Farming.sol:UbeswapV3Farming",
            "label": "tickUpper",
            "offset": 29,
            "slot": "0",
            "type": "t_int24"
          }
        ],
        "numberOfBytes": "32"
      },
      "t_struct(Incentive)1960_storage": {
        "encoding": "inplace",
        "label": "struct UbeswapV3Farming.Incentive",
        "members": [
          {
            "astId": 1943,
            "contract": "contracts/UbeswapV3Farming.sol:UbeswapV3Farming",
            "label": "currentPeriodId",
            "offset": 0,
            "slot": "0",
            "type": "t_uint32"
          },
          {
            "astId": 1945,
            "contract": "contracts/UbeswapV3Farming.sol:UbeswapV3Farming",
            "label": "lastUpdateTime",
            "offset": 4,
            "slot": "0",
            "type": "t_uint32"
          },
          {
            "astId": 1947,
            "contract": "contracts/UbeswapV3Farming.sol:UbeswapV3Farming",
            "label": "endTime",
            "offset": 8,
            "slot": "0",
            "type": "t_uint32"
          },
          {
            "astId": 1949,
            "contract": "contracts/UbeswapV3Farming.sol:UbeswapV3Farming",
            "label": "numberOfStakes",
            "offset": 12,
            "slot": "0",
            "type": "t_uint32"
          },
          {
            "astId": 1951,
            "contract": "contracts/UbeswapV3Farming.sol:UbeswapV3Farming",
            "label": "distributedRewards",
            "offset": 16,
            "slot": "0",
            "type": "t_uint128"
          },
          {
            "astId": 1953,
            "contract": "contracts/UbeswapV3Farming.sol:UbeswapV3Farming",
            "label": "merkleRoot",
            "offset": 0,
            "slot": "1",
            "type": "t_bytes32"
          },
          {
            "astId": 1955,
            "contract": "contracts/UbeswapV3Farming.sol:UbeswapV3Farming",
            "label": "ipfsHash",
            "offset": 0,
            "slot": "2",
            "type": "t_bytes32"
          },
          {
            "astId": 1957,
            "contract": "contracts/UbeswapV3Farming.sol:UbeswapV3Farming",
            "label": "excessRewards",
            "offset": 0,
            "slot": "3",
            "type": "t_uint128"
          },
          {
            "astId": 1959,
            "contract": "contracts/UbeswapV3Farming.sol:UbeswapV3Farming",
            "label": "externalRewards",
            "offset": 16,
            "slot": "3",
            "type": "t_uint128"
          }
        ],
        "numberOfBytes": "128"
      },
      "t_struct(IncentivePeriod)1967_storage": {
        "encoding": "inplace",
        "label": "struct UbeswapV3Farming.IncentivePeriod",
        "members": [
          {
            "astId": 1962,
            "contract": "contracts/UbeswapV3Farming.sol:UbeswapV3Farming",
            "label": "rewardPerSecond",
            "offset": 0,
            "slot": "0",
            "type": "t_uint128"
          },
          {
            "astId": 1964,
            "contract": "contracts/UbeswapV3Farming.sol:UbeswapV3Farming",
            "label": "startTime",
            "offset": 16,
            "slot": "0",
            "type": "t_uint32"
          },
          {
            "astId": 1966,
            "contract": "contracts/UbeswapV3Farming.sol:UbeswapV3Farming",
            "label": "endTime",
            "offset": 20,
            "slot": "0",
            "type": "t_uint32"
          }
        ],
        "numberOfBytes": "32"
      },
      "t_struct(RoleData)21_storage": {
        "encoding": "inplace",
        "label": "struct AccessControl.RoleData",
        "members": [
          {
            "astId": 18,
            "contract": "contracts/UbeswapV3Farming.sol:UbeswapV3Farming",
            "label": "hasRole",
            "offset": 0,
            "slot": "0",
            "type": "t_mapping(t_address,t_bool)"
          },
          {
            "astId": 20,
            "contract": "contracts/UbeswapV3Farming.sol:UbeswapV3Farming",
            "label": "adminRole",
            "offset": 0,
            "slot": "1",
            "type": "t_bytes32"
          }
        ],
        "numberOfBytes": "64"
      },
      "t_struct(Stake)1985_storage": {
        "encoding": "inplace",
        "label": "struct UbeswapV3Farming.Stake",
        "members": [
          {
            "astId": 1980,
            "contract": "contracts/UbeswapV3Farming.sol:UbeswapV3Farming",
            "label": "claimedReward",
            "offset": 0,
            "slot": "0",
            "type": "t_uint128"
          },
          {
            "astId": 1982,
            "contract": "contracts/UbeswapV3Farming.sol:UbeswapV3Farming",
            "label": "stakeTime",
            "offset": 16,
            "slot": "0",
            "type": "t_uint32"
          },
          {
            "astId": 1984,
            "contract": "contracts/UbeswapV3Farming.sol:UbeswapV3Farming",
            "label": "initialSecondsInside",
            "offset": 20,
            "slot": "0",
            "type": "t_uint32"
          }
        ],
        "numberOfBytes": "32"
      },
      "t_struct(UintSet)5014_storage": {
        "encoding": "inplace",
        "label": "struct KnownLengthSet.UintSet",
        "members": [
          {
            "astId": 5009,
            "contract": "contracts/UbeswapV3Farming.sol:UbeswapV3Farming",
            "label": "_values",
            "offset": 0,
            "slot": "0",
            "type": "t_mapping(t_uint256,t_uint256)"
          },
          {
            "astId": 5013,
            "contract": "contracts/UbeswapV3Farming.sol:UbeswapV3Farming",
            "label": "_positions",
            "offset": 0,
            "slot": "1",
            "type": "t_mapping(t_uint256,t_uint256)"
          }
        ],
        "numberOfBytes": "64"
      },
      "t_uint128": {
        "encoding": "inplace",
        "label": "uint128",
        "numberOfBytes": "16"
      },
      "t_uint256": {
        "encoding": "inplace",
        "label": "uint256",
        "numberOfBytes": "32"
      },
      "t_uint32": {
        "encoding": "inplace",
        "label": "uint32",
        "numberOfBytes": "4"
      },
      "t_uint48": {
        "encoding": "inplace",
        "label": "uint48",
        "numberOfBytes": "6"
      }
    }
  }
}